{"contracts/_Galxe.sol":{"Galxe":{"abi":[{"inputs":[],"stateMutability":"nonpayable","type":"constructor"},{"anonymous":false,"inputs":[{"indexed":true,"internalType":"uint256","name":"campaignId","type":"uint256"},{"indexed":true,"internalType":"address","name":"brand","type":"address"},{"indexed":false,"internalType":"uint256","name":"timestamp","type":"uint256"}],"name":"CampaignClosed","type":"event"},{"anonymous":false,"inputs":[{"indexed":true,"internalType":"uint256","name":"campaignId","type":"uint256"},{"indexed":true,"internalType":"bytes32","name":"merkleRoot","type":"bytes32"},{"indexed":false,"internalType":"uint256","name":"totalAllocated","type":"uint256"},{"indexed":false,"internalType":"uint256","name":"timestamp","type":"uint256"}],"name":"ResultsPublished","type":"event"},{"anonymous":false,"inputs":[{"indexed":true,"internalType":"uint256","name":"campaignId","type":"uint256"},{"indexed":true,"internalType":"address","name":"user","type":"address"},{"indexed":false,"internalType":"uint256","name":"amount","type":"uint256"},{"indexed":false,"internalType":"uint256","name":"timestamp","type":"uint256"}],"name":"RewardClaimed","type":"event"},{"inputs":[],"name":"campaignCount","outputs":[{"internalType":"uint256","name":"","type":"uint256"}],"stateMutability":"view","type":"function"},{"inputs":[{"internalType":"uint256","name":"","type":"uint256"}],"name":"campaigns","outputs":[{"internalType":"uint256","name":"id","type":"uint256"},{"internalType":"address","name":"brand","type":"address"},{"internalType":"address","name":"rewardToken","type":"address"},{"internalType":"uint256","name":"budget","type":"uint256"},{"internalType":"uint256","name":"endTime","type":"uint256"},{"internalType":"bytes32","name":"merkleRoot","type":"bytes32"},{"internalType":"uint256","name":"totalAllocated","type":"uint256"},{"internalType":"bool","name":"isActive","type":"bool"}],"stateMutability":"view","type":"function"},{"inputs":[{"internalType":"uint256","name":"campaignId","type":"uint256"},{"internalType":"uint256","name":"amount","type":"uint256"},{"internalType":"bytes32[]","name":"merkleProof","type":"bytes32[]"}],"name":"claimReward","outputs":[],"stateMutability":"nonpayable","type":"function"},{"inputs":[{"internalType":"uint256","name":"campaignId","type":"uint256"}],"name":"closeCampaign","outputs":[],"stateMutability":"nonpayable","type":"function"},{"inputs":[{"internalType":"address","name":"token","type":"address"},{"internalType":"uint256","name":"budget","type":"uint256"},{"internalType":"uint256","name":"endTime","type":"uint256"}],"name":"createCampaign","outputs":[],"stateMutability":"payable","type":"function"},{"inputs":[{"internalType":"uint256","name":"campaignId","type":"uint256"}],"name":"getCampaign","outputs":[{"internalType":"uint256","name":"id","type":"uint256"},{"internalType":"address","name":"brand","type":"address"},{"internalType":"address","name":"rewardToken","type":"address"},{"internalType":"uint256","name":"budget","type":"uint256"},{"internalType":"uint256","name":"endTime","type":"uint256"},{"internalType":"bytes32","name":"merkleRoot","type":"bytes32"},{"internalType":"uint256","name":"totalAllocated","type":"uint256"},{"internalType":"bool","name":"isActive","type":"bool"},{"internalType":"bool","name":"hasEnded","type":"bool"},{"internalType":"bool","name":"resultsPublished","type":"bool"}],"stateMutability":"view","type":"function"},{"inputs":[{"internalType":"uint256","name":"campaignId","type":"uint256"}],"name":"getCampaignStatus","outputs":[{"internalType":"bool","name":"hasEnded","type":"bool"},{"internalType":"bool","name":"resultsPublished","type":"bool"},{"internalType":"bool","name":"isActive","type":"bool"},{"internalType":"uint256","name":"remainingBudget","type":"uint256"}],"stateMutability":"view","type":"function"},{"inputs":[{"internalType":"uint256","name":"campaignId","type":"uint256"}],"name":"getCampaignStruct","outputs":[{"components":[{"internalType":"uint256","name":"id","type":"uint256"},{"internalType":"address","name":"brand","type":"address"},{"internalType":"address","name":"rewardToken","type":"address"},{"internalType":"uint256","name":"budget","type":"uint256"},{"internalType":"uint256","name":"endTime","type":"uint256"},{"internalType":"bytes32","name":"merkleRoot","type":"bytes32"},{"internalType":"uint256","name":"totalAllocated","type":"uint256"},{"internalType":"bool","name":"isActive","type":"bool"}],"internalType":"struct Campaign","name":"","type":"tuple"}],"stateMutability":"view","type":"function"},{"inputs":[{"internalType":"uint256","name":"","type":"uint256"},{"internalType":"address","name":"","type":"address"}],"name":"hasClaimed","outputs":[{"internalType":"bool","name":"","type":"bool"}],"stateMutability":"view","type":"function"},{"inputs":[],"name":"oracle","outputs":[{"internalType":"address","name":"","type":"address"}],"stateMutability":"view","type":"function"},{"inputs":[],"name":"owner","outputs":[{"internalType":"address","name":"","type":"address"}],"stateMutability":"view","type":"function"},{"inputs":[{"internalType":"uint256","name":"campaignId","type":"uint256"},{"internalType":"bytes32","name":"_merkleRoot","type":"bytes32"},{"internalType":"uint256","name":"_totalAllocated","type":"uint256"}],"name":"publishResults","outputs":[],"stateMutability":"nonpayable","type":"function"},{"inputs":[{"internalType":"address","name":"newOracle","type":"address"}],"name":"setOracle","outputs":[],"stateMutability":"nonpayable","type":"function"}],"evm":{"bytecode":{"linkReferences":{},"object":"60806040523480156200001157600080fd5b506200002e6747b536f5b90f368160c01b620000ed60201b60201c565b6200004a674e07c075047e1b4d60c01b620000ed60201b60201c565b33600160006101000a81548173ffffffffffffffffffffffffffffffffffffffff021916908373ffffffffffffffffffffffffffffffffffffffff160217905550620000a7675babe5d2d4809e2560c01b620000ed60201b60201c565b336000806101000a81548173ffffffffffffffffffffffffffffffffffffffff021916908373ffffffffffffffffffffffffffffffffffffffff160217905550620000f0565b50565b61300480620001006000396000f3fe6080604052600436106100c25760003560e01c80637dc0d1d01161007f5780639821f5f2116100595780639821f5f214610294578063b0e1c1e1146102bd578063e2020167146102e6578063fcc027591461030f576100c2565b80637dc0d1d014610201578063873f6f9e1461022c5780638da5cb5b14610269576100c2565b8063141961bc146100c7578063461b60041461010b5780635598f8cc146101275780636c19e0041461016d5780637274e30d146101ad5780637adbf973146101d8575b600080fd5b3480156100d357600080fd5b506100ee60048036038101906100e99190612055565b61034c565b604051610102989796959493929190612106565b60405180910390f35b610125600480360381019061012091906121b0565b6103e1565b005b34801561013357600080fd5b5061014e60048036038101906101499190612055565b61079b565b6040516101649a99989796959493929190612203565b60405180910390f35b34801561017957600080fd5b50610194600480360381019061018f9190612055565b61096f565b6040516101a4949392919061229f565b60405180910390f35b3480156101b957600080fd5b506101c2610ad9565b6040516101cf91906122e4565b60405180910390f35b3480156101e457600080fd5b506101ff60048036038101906101fa91906122ff565b610adf565b005b34801561020d57600080fd5b50610216610d38565b604051610223919061232c565b60405180910390f35b34801561023857600080fd5b50610253600480360381019061024e9190612347565b610d5c565b6040516102609190612387565b60405180910390f35b34801561027557600080fd5b5061027e610d8b565b60405161028b919061232c565b60405180910390f35b3480156102a057600080fd5b506102bb60048036038101906102b69190612407565b610db1565b005b3480156102c957600080fd5b506102e460048036038101906102df9190612055565b6113b2565b005b3480156102f257600080fd5b5061030d600480360381019061030891906124a7565b611701565b005b34801561031b57600080fd5b5061033660048036038101906103319190612055565b611ce9565b60405161034391906125d8565b60405180910390f35b60026020528060005260406000206000915090508060000154908060010160009054906101000a900473ffffffffffffffffffffffffffffffffffffffff16908060020160009054906101000a900473ffffffffffffffffffffffffffffffffffffffff16908060030154908060040154908060050154908060060154908060070160009054906101000a900460ff16905088565b6103f567ce5256485a185aca60c01b611eed565b61040967bb0107660475a7ac60c01b611eed565b61041d67cf030244c1b7669e60c01b611eed565b61043167d5d5c77b924cfd6f60c01b611eed565b428111610473576040517f08c379a000000000000000000000000000000000000000000000000000000000815260040161046a90612651565b60405180910390fd5b610487673a0242fb6bc228ad60c01b611eed565b61049b67f8f8ab184ea2a17e60c01b611eed565b6104af67b19bad7c10c1068a60c01b611eed565b6104c367c665391c54fbbfff60c01b611eed565b60008211610506576040517f08c379a00000000000000000000000000000000000000000000000000000000081526004016104fd906126bd565b60405180910390fd5b61051a67f999dd52102357de60c01b611eed565b61052e673d5b7bbc45b4886e60c01b611eed565b600360008154809291906105419061270c565b919050555061055a674717554baf3fa97e60c01b611eed565b61056e672cfcc113a4dd083d60c01b611eed565b60006003549050610589674633a8509f06030460c01b611eed565b6040518061010001604052808281526020013373ffffffffffffffffffffffffffffffffffffffff1681526020018573ffffffffffffffffffffffffffffffffffffffff1681526020018481526020018381526020016000801b81526020016000815260200160011515815250600260008381526020019081526020016000206000820151816000015560208201518160010160006101000a81548173ffffffffffffffffffffffffffffffffffffffff021916908373ffffffffffffffffffffffffffffffffffffffff16021790555060408201518160020160006101000a81548173ffffffffffffffffffffffffffffffffffffffff021916908373ffffffffffffffffffffffffffffffffffffffff160217905550606082015181600301556080820151816004015560a0820151816005015560c0820151816006015560e08201518160070160006101000a81548160ff02191690831515021790555090505061070067e5e30ffcc1a98a4960c01b611eed565b61071467b20e10fbb849ba4860c01b611eed565b8373ffffffffffffffffffffffffffffffffffffffff166323b872dd3330866040518463ffffffff1660e01b815260040161075193929190612754565b6020604051808303816000875af1158015610770573d6000803e3d6000fd5b505050506040513d601f19601f8201168201806040525081019061079491906127b7565b5050505050565b6000806000806000806000806000806107be678ad9e87942ce3df560c01b611eed565b6107d2678d214b2cb54306a160c01b611eed565b6107e6679685758d0a527c9d60c01b611eed565b6107fa67199c49f7864ad36860c01b611eed565b60008b11801561080c57506003548b11155b61084b576040517f08c379a000000000000000000000000000000000000000000000000000000000815260040161084290612830565b60405180910390fd5b61085f67427fe07aeb05ae2c60c01b611eed565b61087367737913b6a4ac646a60c01b611eed565b610887677682ed69fceb68b560c01b611eed565b6000600260008d815260200190815260200160002090506108b2678397e163c70c481860c01b611eed565b6108c66704e93427039ecb4460c01b611eed565b80600001548160010160009054906101000a900473ffffffffffffffffffffffffffffffffffffffff168260020160009054906101000a900473ffffffffffffffffffffffffffffffffffffffff1683600301548460040154856005015486600601548760070160009054906101000a900460ff16886004015442116000801b8a6005015414159a509a509a509a509a509a509a509a509a509a50509193959799509193959799565b60008060008061098967a5a9279f117e8aa960c01b611eed565b61099d671a498ffc0e64316a60c01b611eed565b6109b167959342cd563e027e60c01b611eed565b6109c567ee4ea39dc785480860c01b611eed565b6000851180156109d757506003548511155b610a16576040517f08c379a0000000000000000000000000000000000000000000000000000000008152600401610a0d90612830565b60405180910390fd5b610a2a67cd0a9474d114558760c01b611eed565b610a3e67e968754ee83c62f660c01b611eed565b610a52674a445890b4bb9f1d60c01b611eed565b6000600260008781526020019081526020016000209050610a7d67b7ea902f44ce569d60c01b611eed565b610a9167ff066632b0c9e2b360c01b611eed565b806004015442116000801b826005015414158260070160009054906101000a900460ff1683600601548460030154610ac99190612850565b9450945094509450509193509193565b60035481565b610af36765d9db39213a1c4e60c01b611eed565b610b07679e7739d6cc30dda660c01b611eed565b610b1b678a98e8392f0c344460c01b611eed565b610b2f67afd9ef7f857ed64960c01b611eed565b610b436790d785c98b3b980960c01b611eed565b600160009054906101000a900473ffffffffffffffffffffffffffffffffffffffff1673ffffffffffffffffffffffffffffffffffffffff163373ffffffffffffffffffffffffffffffffffffffff1614610bd3576040517f08c379a0000000000000000000000000000000000000000000000000000000008152600401610bca906128f6565b60405180910390fd5b610be7679de32f0ccd251b9460c01b611eed565b610bfb670d25ac69e2b14abf60c01b611eed565b610c0f67cb519c4499ff8d1360c01b611eed565b610c2367c9c3c9e8860f998460c01b611eed565b610c3767ac5af425f6a324c760c01b611eed565b610c4b677db6c6011d04422360c01b611eed565b610c5e668a605bc681726e60c01b611eed565b600073ffffffffffffffffffffffffffffffffffffffff168173ffffffffffffffffffffffffffffffffffffffff1603610ccd576040517f08c379a0000000000000000000000000000000000000000000000000000000008152600401610cc490612962565b60405180910390fd5b610ce1671da0e698ea322a0260c01b611eed565b610cf5677ddb251c253d169b60c01b611eed565b806000806101000a81548173ffffffffffffffffffffffffffffffffffffffff021916908373ffffffffffffffffffffffffffffffffffffffff16021790555050565b60008054906101000a900473ffffffffffffffffffffffffffffffffffffffff1681565b60046020528160005260406000206020528060005260406000206000915091509054906101000a900460ff1681565b600160009054906101000a900473ffffffffffffffffffffffffffffffffffffffff1681565b610dc567d6c003b68f4e59e460c01b611eed565b610dd9679863545d01b44d4860c01b611eed565b610ded673ddb62aff4b40ab460c01b611eed565b6000600260008681526020019081526020016000209050610e1867b2a735644b33dd4860c01b611eed565b610e2c678c208e59a4d9fdc160c01b611eed565b610e406789a0744c8338861d60c01b611eed565b6000816000015403610e87576040517f08c379a0000000000000000000000000000000000000000000000000000000008152600401610e7e90612830565b60405180910390fd5b610e9b67a79a728e1680f73b60c01b611eed565b610eaf67d31bc81762009eeb60c01b611eed565b610ec367ace0b494906d6b6360c01b611eed565b610ed767b1c4e018a23efec160c01b611eed565b6000801b816005015403610f20576040517f08c379a0000000000000000000000000000000000000000000000000000000008152600401610f17906129ce565b60405180910390fd5b610f3467e01531c36e1dac9160c01b611eed565b610f4867d417be2c943943e460c01b611eed565b610f5c67feb8f9f1aff0c01f60c01b611eed565b610f7067a004017bdba80cc060c01b611eed565b6004600086815260200190815260200160002060003373ffffffffffffffffffffffffffffffffffffffff1673ffffffffffffffffffffffffffffffffffffffff16815260200190815260200160002060009054906101000a900460ff161561100e576040517f08c379a000000000000000000000000000000000000000000000000000000000815260040161100590612a3a565b60405180910390fd5b61102267b031fbe17703920660c01b611eed565b611036678fc853f54754213460c01b611eed565b61104a6773529f78be6f5e2160c01b611eed565b61105e674d506b2e7fe60c5d60c01b611eed565b600084116110a1576040517f08c379a000000000000000000000000000000000000000000000000000000000815260040161109890612aa6565b60405180910390fd5b6110b567dbb9c0884e4800b160c01b611eed565b6110c96795a8410cb649c21160c01b611eed565b6110dd6756b2bb121cf5748560c01b611eed565b600033856040516020016110f2929190612b2f565b60405160208183030381529060405280519060200120905061111e679da5208af511a08e60c01b611eed565b61113267dd6fc087fc66768a60c01b611eed565b6111466726e2cb7d5af844ed60c01b611eed565b611196848480806020026020016040519081016040528093929190818152602001838360200280828437600081840152601f19601f82011690508083019250505050505050836005015483611ef0565b6111d5576040517f08c379a00000000000000000000000000000000000000000000000000000000081526004016111cc90612ba7565b60405180910390fd5b6111e967262b81f596bd2b9760c01b611eed565b6111fd67542421bf4f9501cd60c01b611eed565b60016004600088815260200190815260200160002060003373ffffffffffffffffffffffffffffffffffffffff1673ffffffffffffffffffffffffffffffffffffffff16815260200190815260200160002060006101000a81548160ff02191690831515021790555061127a67276cea5a49a4d13860c01b611eed565b61128e674f63d9be667a9ee460c01b611eed565b8160020160009054906101000a900473ffffffffffffffffffffffffffffffffffffffff1673ffffffffffffffffffffffffffffffffffffffff1663a9059cbb33876040518363ffffffff1660e01b81526004016112ed929190612bc7565b6020604051808303816000875af115801561130c573d6000803e3d6000fd5b505050506040513d601f19601f8201168201806040525081019061133091906127b7565b50611345676184bb7dddf7034060c01b611eed565b6113596710cc3a8b1594900d60c01b611eed565b3373ffffffffffffffffffffffffffffffffffffffff16867ffc6ecd966b430510beae9124efe7dd517ed5286d7ed0ae258f8556c7a9765a4487426040516113a2929190612bf0565b60405180910390a3505050505050565b6113c667c28ba1a950e5ec1e60c01b611eed565b6113da67bda916eaae4c73b660c01b611eed565b6113ee679c3b25d94d5f7a6260c01b611eed565b611402672cf9e3c511408d4560c01b611eed565b600060026000838152602001908152602001600020600001540361145b576040517f08c379a000000000000000000000000000000000000000000000000000000000815260040161145290612830565b60405180910390fd5b61146f677ba271ad69b85b8560c01b611eed565b6114836751a3a2547be5a79360c01b611eed565b611497678c71ac656786ed7b60c01b611eed565b6114ab6714d098ad508aed5a60c01b611eed565b6002600082815260200190815260200160002060070160009054906101000a900460ff1661150e576040517f08c379a000000000000000000000000000000000000000000000000000000000815260040161150590612c65565b60405180910390fd5b611522676d9ebe5e36ac77ff60c01b611eed565b61153667295a25cafacd530360c01b611eed565b61154a675e33c92f9b22b80a60c01b611eed565b61155e67b40644bd7fb8960160c01b611eed565b6002600082815260200190815260200160002060010160009054906101000a900473ffffffffffffffffffffffffffffffffffffffff1673ffffffffffffffffffffffffffffffffffffffff163373ffffffffffffffffffffffffffffffffffffffff1614611602576040517f08c379a00000000000000000000000000000000000000000000000000000000081526004016115f990612cd1565b60405180910390fd5b6116166774c06881ee25ac6560c01b611eed565b61162a675881eb376dcb310360c01b611eed565b61163e67cc75f749319576ec60c01b611eed565b60006002600083815260200190815260200160002090506116696748c541d728235c0960c01b611eed565b60008160070160006101000a81548160ff02191690831515021790555061169a67692e48fd39e59b3b60c01b611eed565b6116ae679eaf5758cecf771360c01b611eed565b3373ffffffffffffffffffffffffffffffffffffffff16827fe120b15313f47b70c9196f36751e63aa50b67cf9316c6b5d695b4ad33ce2076f426040516116f591906122e4565b60405180910390a35050565b6117156753abe6e9caedb96660c01b611eed565b61172967c00da440f5b5780760c01b611eed565b61173d6743864822ac29142f60c01b611eed565b61175167b1d13d34e568d18960c01b611eed565b61176567da8b33b1ccd113df60c01b611eed565b60008054906101000a900473ffffffffffffffffffffffffffffffffffffffff1673ffffffffffffffffffffffffffffffffffffffff163373ffffffffffffffffffffffffffffffffffffffff16146117f3576040517f08c379a00000000000000000000000000000000000000000000000000000000081526004016117ea90612d63565b60405180910390fd5b61180767529649189fb9fd8660c01b611eed565b61181b6779aa178c3d29cf9560c01b611eed565b61182f67e4a61ac82b095afa60c01b611eed565b61184367bea6c43b8a463fe060c01b611eed565b61185767da555411a14eb5ec60c01b611eed565b61186b67285173f9028e795960c01b611eed565b600060026000858152602001908152602001600020905061189667295b49781f9c990260c01b611eed565b6118aa674bffee94553d2e2e60c01b611eed565b6118be67e3983fec82338d3d60c01b611eed565b6000816000015403611905576040517f08c379a00000000000000000000000000000000000000000000000000000000081526004016118fc90612830565b60405180910390fd5b61191967e660e4e0c4231c1b60c01b611eed565b61192d675849ab8e56d0b83f60c01b611eed565b611941670b333acf5b4e738260c01b611eed565b61195567ee3d4428338c72ad60c01b611eed565b8060070160009054906101000a900460ff166119a6576040517f08c379a000000000000000000000000000000000000000000000000000000000815260040161199d90612dcf565b60405180910390fd5b6119ba6727caa66ae26b313560c01b611eed565b6119ce6749d1f7e88a604b6f60c01b611eed565b6119e267e917dc02606d623760c01b611eed565b6119f667200b58e234d84ba360c01b611eed565b80600401544211611a3c576040517f08c379a0000000000000000000000000000000000000000000000000000000008152600401611a3390612e3b565b60405180910390fd5b611a5067b6e27fa1e546aaf660c01b611eed565b611a64674814a162d4679e4d60c01b611eed565b611a7867f8012aae73d01f7d60c01b611eed565b611a8c67c0d53495b789552560c01b611eed565b6000801b816005015414611ad5576040517f08c379a0000000000000000000000000000000000000000000000000000000008152600401611acc90612ea7565b60405180910390fd5b611ae9676d0fc077155081d760c01b611eed565b611afd671ed7cc108bf0475060c01b611eed565b611b1167d2f1a5c5bcaa115760c01b611eed565b611b2567855ad3b66679128960c01b611eed565b8060030154821115611b6c576040517f08c379a0000000000000000000000000000000000000000000000000000000008152600401611b6390612f13565b60405180910390fd5b611b8067b1f00c49f1943e1060c01b611eed565b611b9467a20bc852ede3160a60c01b611eed565b611ba8679d9132567014f73260c01b611eed565b611bbc679a93f03d46d329e960c01b611eed565b6000801b8303611c01576040517f08c379a0000000000000000000000000000000000000000000000000000000008152600401611bf890612f7f565b60405180910390fd5b611c15677b4b5fb6fda7f27f60c01b611eed565b611c296755bbf0827cc3ac5260c01b611eed565b828160050181905550611c46670c016d7f1952593c60c01b611eed565b818160060181905550611c6367addf9673d824571760c01b611eed565b60008160070160006101000a81548160ff021916908315150217905550611c9467b9133b592e5b194960c01b611eed565b611ca867b443a2d1363a960260c01b611eed565b82847faadc284d63eaaf8a809a1b43e533d2e81be005f73d7e7ca39e5457844740463f8442604051611cdb929190612bf0565b60405180910390a350505050565b611cf1611f9f565b611d056727f28e327917debf60c01b611eed565b611d196786a4dccf621b5a2f60c01b611eed565b611d2d6752a8b6a85e9d3c8860c01b611eed565b611d41675ab854ee4b670cd260c01b611eed565b600082118015611d5357506003548211155b611d92576040517f08c379a0000000000000000000000000000000000000000000000000000000008152600401611d8990612830565b60405180910390fd5b611da6675a5093a25e0997ff60c01b611eed565b611dba673d828991a9051bf860c01b611eed565b611dce67c656adf8db28473060c01b611eed565b6002600083815260200190815260200160002060405180610100016040529081600082015481526020016001820160009054906101000a900473ffffffffffffffffffffffffffffffffffffffff1673ffffffffffffffffffffffffffffffffffffffff1673ffffffffffffffffffffffffffffffffffffffff1681526020016002820160009054906101000a900473ffffffffffffffffffffffffffffffffffffffff1673ffffffffffffffffffffffffffffffffffffffff1673ffffffffffffffffffffffffffffffffffffffff168152602001600382015481526020016004820154815260200160058201548152602001600682015481526020016007820160009054906101000a900460ff1615151515815250509050919050565b50565b600082611efd8584611f07565b1490509392505050565b60008082905060005b8451811015611f5257611f3d82868381518110611f3057611f2f612f9f565b5b6020026020010151611f5d565b91508080611f4a9061270c565b915050611f10565b508091505092915050565b6000818310611f7557611f708284611f88565b611f80565b611f7f8383611f88565b5b905092915050565b600082600052816020526040600020905092915050565b60405180610100016040528060008152602001600073ffffffffffffffffffffffffffffffffffffffff168152602001600073ffffffffffffffffffffffffffffffffffffffff168152602001600081526020016000815260200160008019168152602001600081526020016000151581525090565b600080fd5b600080fd5b6000819050919050565b6120328161201f565b811461203d57600080fd5b50565b60008135905061204f81612029565b92915050565b60006020828403121561206b5761206a612015565b5b600061207984828501612040565b91505092915050565b61208b8161201f565b82525050565b600073ffffffffffffffffffffffffffffffffffffffff82169050919050565b60006120bc82612091565b9050919050565b6120cc816120b1565b82525050565b6000819050919050565b6120e5816120d2565b82525050565b60008115159050919050565b612100816120eb565b82525050565b60006101008201905061211c600083018b612082565b612129602083018a6120c3565b61213660408301896120c3565b6121436060830188612082565b6121506080830187612082565b61215d60a08301866120dc565b61216a60c0830185612082565b61217760e08301846120f7565b9998505050505050505050565b61218d816120b1565b811461219857600080fd5b50565b6000813590506121aa81612184565b92915050565b6000806000606084860312156121c9576121c8612015565b5b60006121d78682870161219b565b93505060206121e886828701612040565b92505060406121f986828701612040565b9150509250925092565b600061014082019050612219600083018d612082565b612226602083018c6120c3565b612233604083018b6120c3565b612240606083018a612082565b61224d6080830189612082565b61225a60a08301886120dc565b61226760c0830187612082565b61227460e08301866120f7565b6122826101008301856120f7565b6122906101208301846120f7565b9b9a5050505050505050505050565b60006080820190506122b460008301876120f7565b6122c160208301866120f7565b6122ce60408301856120f7565b6122db6060830184612082565b95945050505050565b60006020820190506122f96000830184612082565b92915050565b60006020828403121561231557612314612015565b5b60006123238482850161219b565b91505092915050565b600060208201905061234160008301846120c3565b92915050565b6000806040838503121561235e5761235d612015565b5b600061236c85828601612040565b925050602061237d8582860161219b565b9150509250929050565b600060208201905061239c60008301846120f7565b92915050565b600080fd5b600080fd5b600080fd5b60008083601f8401126123c7576123c66123a2565b5b8235905067ffffffffffffffff8111156123e4576123e36123a7565b5b602083019150836020820283011115612400576123ff6123ac565b5b9250929050565b6000806000806060858703121561242157612420612015565b5b600061242f87828801612040565b945050602061244087828801612040565b935050604085013567ffffffffffffffff8111156124615761246061201a565b5b61246d878288016123b1565b925092505092959194509250565b612484816120d2565b811461248f57600080fd5b50565b6000813590506124a18161247b565b92915050565b6000806000606084860312156124c0576124bf612015565b5b60006124ce86828701612040565b93505060206124df86828701612492565b92505060406124f086828701612040565b9150509250925092565b6125038161201f565b82525050565b612512816120b1565b82525050565b612521816120d2565b82525050565b612530816120eb565b82525050565b6101008201600082015161254d60008501826124fa565b5060208201516125606020850182612509565b5060408201516125736040850182612509565b50606082015161258660608501826124fa565b50608082015161259960808501826124fa565b5060a08201516125ac60a0850182612518565b5060c08201516125bf60c08501826124fa565b5060e08201516125d260e0850182612527565b50505050565b6000610100820190506125ee6000830184612536565b92915050565b600082825260208201905092915050565b7f456e642074696d65206d75737420626520696e20746865206675747572650000600082015250565b600061263b601e836125f4565b915061264682612605565b602082019050919050565b6000602082019050818103600083015261266a8161262e565b9050919050565b7f427564676574206d7573742062652067726561746572207468616e207a65726f600082015250565b60006126a76020836125f4565b91506126b282612671565b602082019050919050565b600060208201905081810360008301526126d68161269a565b9050919050565b7f4e487b7100000000000000000000000000000000000000000000000000000000600052601160045260246000fd5b60006127178261201f565b91507fffffffffffffffffffffffffffffffffffffffffffffffffffffffffffffffff8203612749576127486126dd565b5b600182019050919050565b600060608201905061276960008301866120c3565b61277660208301856120c3565b6127836040830184612082565b949350505050565b612794816120eb565b811461279f57600080fd5b50565b6000815190506127b18161278b565b92915050565b6000602082840312156127cd576127cc612015565b5b60006127db848285016127a2565b91505092915050565b7f43616d706169676e20646f6573206e6f74206578697374000000000000000000600082015250565b600061281a6017836125f4565b9150612825826127e4565b602082019050919050565b600060208201905081810360008301526128498161280d565b9050919050565b600061285b8261201f565b91506128668361201f565b925082820390508181111561287e5761287d6126dd565b5b92915050565b7f4f6e6c79206f776e65722063616e2063616c6c20746869732066756e6374696f60008201527f6e00000000000000000000000000000000000000000000000000000000000000602082015250565b60006128e06021836125f4565b91506128eb82612884565b604082019050919050565b6000602082019050818103600083015261290f816128d3565b9050919050565b7f4f7261636c652063616e6e6f74206265207a65726f2061646472657373000000600082015250565b600061294c601d836125f4565b915061295782612916565b602082019050919050565b6000602082019050818103600083015261297b8161293f565b9050919050565b7f526573756c7473206e6f74207075626c69736865642079657400000000000000600082015250565b60006129b86019836125f4565b91506129c382612982565b602082019050919050565b600060208201905081810360008301526129e7816129ab565b9050919050565b7f52657761726420616c726561647920636c61696d656400000000000000000000600082015250565b6000612a246016836125f4565b9150612a2f826129ee565b602082019050919050565b60006020820190508181036000830152612a5381612a17565b9050919050565b7f416d6f756e74206d7573742062652067726561746572207468616e207a65726f600082015250565b6000612a906020836125f4565b9150612a9b82612a5a565b602082019050919050565b60006020820190508181036000830152612abf81612a83565b9050919050565b60008160601b9050919050565b6000612ade82612ac6565b9050919050565b6000612af082612ad3565b9050919050565b612b08612b03826120b1565b612ae5565b82525050565b6000819050919050565b612b29612b248261201f565b612b0e565b82525050565b6000612b3b8285612af7565b601482019150612b4b8284612b18565b6020820191508190509392505050565b7f496e76616c6964204d65726b6c652070726f6f66000000000000000000000000600082015250565b6000612b916014836125f4565b9150612b9c82612b5b565b602082019050919050565b60006020820190508181036000830152612bc081612b84565b9050919050565b6000604082019050612bdc60008301856120c3565b612be96020830184612082565b9392505050565b6000604082019050612c056000830185612082565b612c126020830184612082565b9392505050565b7f43616d706169676e20697320616c726561647920636c6f736564000000000000600082015250565b6000612c4f601a836125f4565b9150612c5a82612c19565b602082019050919050565b60006020820190508181036000830152612c7e81612c42565b9050919050565b7f4f6e6c792063616d706169676e2063726561746f722063616e20636c6f736500600082015250565b6000612cbb601f836125f4565b9150612cc682612c85565b602082019050919050565b60006020820190508181036000830152612cea81612cae565b9050919050565b7f4f6e6c79206f7261636c652063616e2063616c6c20746869732066756e63746960008201527f6f6e000000000000000000000000000000000000000000000000000000000000602082015250565b6000612d4d6022836125f4565b9150612d5882612cf1565b604082019050919050565b60006020820190508181036000830152612d7c81612d40565b9050919050565b7f43616d706169676e206973206e6f742061637469766500000000000000000000600082015250565b6000612db96016836125f4565b9150612dc482612d83565b602082019050919050565b60006020820190508181036000830152612de881612dac565b9050919050565b7f43616d706169676e20686173206e6f7420656e64656420796574000000000000600082015250565b6000612e25601a836125f4565b9150612e3082612def565b602082019050919050565b60006020820190508181036000830152612e5481612e18565b9050919050565b7f526573756c747320616c7265616479207075626c697368656400000000000000600082015250565b6000612e916019836125f4565b9150612e9c82612e5b565b602082019050919050565b60006020820190508181036000830152612ec081612e84565b9050919050565b7f416c6c6f636174656420616d6f756e7420657863656564732062756467657400600082015250565b6000612efd601f836125f4565b9150612f0882612ec7565b602082019050919050565b60006020820190508181036000830152612f2c81612ef0565b9050919050565b7f4d65726b6c6520726f6f742063616e6e6f7420626520656d7074790000000000600082015250565b6000612f69601b836125f4565b9150612f7482612f33565b602082019050919050565b60006020820190508181036000830152612f9881612f5c565b9050919050565b7f4e487b7100000000000000000000000000000000000000000000000000000000600052603260045260246000fdfea264697066735822122069d9f9c20131c3b7cfeb11f3bf12be727ff54bb1c6f568c65bbbf216d106a16f64736f6c63430008130033","opcodes":"PUSH1 0x80 PUSH1 0x40 MSTORE CALLVALUE DUP1 ISZERO PUSH3 0x11 JUMPI PUSH1 0x0 DUP1 REVERT JUMPDEST POP PUSH3 0x2E PUSH8 0x47B536F5B90F3681 PUSH1 0xC0 SHL PUSH3 0xED PUSH1 0x20 SHL PUSH1 0x20 SHR JUMP JUMPDEST PUSH3 0x4A PUSH8 0x4E07C075047E1B4D PUSH1 0xC0 SHL PUSH3 0xED PUSH1 0x20 SHL PUSH1 0x20 SHR JUMP JUMPDEST CALLER PUSH1 0x1 PUSH1 0x0 PUSH2 0x100 EXP DUP2 SLOAD DUP2 PUSH20 0xFFFFFFFFFFFFFFFFFFFFFFFFFFFFFFFFFFFFFFFF MUL NOT AND SWAP1 DUP4 PUSH20 0xFFFFFFFFFFFFFFFFFFFFFFFFFFFFFFFFFFFFFFFF AND MUL OR SWAP1 SSTORE POP PUSH3 0xA7 PUSH8 0x5BABE5D2D4809E25 PUSH1 0xC0 SHL PUSH3 0xED PUSH1 0x20 SHL PUSH1 0x20 SHR JUMP JUMPDEST CALLER PUSH1 0x0 DUP1 PUSH2 0x100 EXP DUP2 SLOAD DUP2 PUSH20 0xFFFFFFFFFFFFFFFFFFFFFFFFFFFFFFFFFFFFFFFF MUL NOT AND SWAP1 DUP4 PUSH20 0xFFFFFFFFFFFFFFFFFFFFFFFFFFFFFFFFFFFFFFFF AND MUL OR SWAP1 SSTORE POP PUSH3 0xF0 JUMP JUMPDEST POP JUMP JUMPDEST PUSH2 0x3004 DUP1 PUSH3 0x100 PUSH1 0x0 CODECOPY PUSH1 0x0 RETURN INVALID PUSH1 0x80 PUSH1 0x40 MSTORE PUSH1 0x4 CALLDATASIZE LT PUSH2 0xC2 JUMPI PUSH1 0x0 CALLDATALOAD PUSH1 0xE0 SHR DUP1 PUSH4 0x7DC0D1D0 GT PUSH2 0x7F JUMPI DUP1 PUSH4 0x9821F5F2 GT PUSH2 0x59 JUMPI DUP1 PUSH4 0x9821F5F2 EQ PUSH2 0x294 JUMPI DUP1 PUSH4 0xB0E1C1E1 EQ PUSH2 0x2BD JUMPI DUP1 PUSH4 0xE2020167 EQ PUSH2 0x2E6 JUMPI DUP1 PUSH4 0xFCC02759 EQ PUSH2 0x30F JUMPI PUSH2 0xC2 JUMP JUMPDEST DUP1 PUSH4 0x7DC0D1D0 EQ PUSH2 0x201 JUMPI DUP1 PUSH4 0x873F6F9E EQ PUSH2 0x22C JUMPI DUP1 PUSH4 0x8DA5CB5B EQ PUSH2 0x269 JUMPI PUSH2 0xC2 JUMP JUMPDEST DUP1 PUSH4 0x141961BC EQ PUSH2 0xC7 JUMPI DUP1 PUSH4 0x461B6004 EQ PUSH2 0x10B JUMPI DUP1 PUSH4 0x5598F8CC EQ PUSH2 0x127 JUMPI DUP1 PUSH4 0x6C19E004 EQ PUSH2 0x16D JUMPI DUP1 PUSH4 0x7274E30D EQ PUSH2 0x1AD JUMPI DUP1 PUSH4 0x7ADBF973 EQ PUSH2 0x1D8 JUMPI JUMPDEST PUSH1 0x0 DUP1 REVERT JUMPDEST CALLVALUE DUP1 ISZERO PUSH2 0xD3 JUMPI PUSH1 0x0 DUP1 REVERT JUMPDEST POP PUSH2 0xEE PUSH1 0x4 DUP1 CALLDATASIZE SUB DUP2 ADD SWAP1 PUSH2 0xE9 SWAP2 SWAP1 PUSH2 0x2055 JUMP JUMPDEST PUSH2 0x34C JUMP JUMPDEST PUSH1 0x40 MLOAD PUSH2 0x102 SWAP9 SWAP8 SWAP7 SWAP6 SWAP5 SWAP4 SWAP3 SWAP2 SWAP1 PUSH2 0x2106 JUMP JUMPDEST PUSH1 0x40 MLOAD DUP1 SWAP2 SUB SWAP1 RETURN JUMPDEST PUSH2 0x125 PUSH1 0x4 DUP1 CALLDATASIZE SUB DUP2 ADD SWAP1 PUSH2 0x120 SWAP2 SWAP1 PUSH2 0x21B0 JUMP JUMPDEST PUSH2 0x3E1 JUMP JUMPDEST STOP JUMPDEST CALLVALUE DUP1 ISZERO PUSH2 0x133 JUMPI PUSH1 0x0 DUP1 REVERT JUMPDEST POP PUSH2 0x14E PUSH1 0x4 DUP1 CALLDATASIZE SUB DUP2 ADD SWAP1 PUSH2 0x149 SWAP2 SWAP1 PUSH2 0x2055 JUMP JUMPDEST PUSH2 0x79B JUMP JUMPDEST PUSH1 0x40 MLOAD PUSH2 0x164 SWAP11 SWAP10 SWAP9 SWAP8 SWAP7 SWAP6 SWAP5 SWAP4 SWAP3 SWAP2 SWAP1 PUSH2 0x2203 JUMP JUMPDEST PUSH1 0x40 MLOAD DUP1 SWAP2 SUB SWAP1 RETURN JUMPDEST CALLVALUE DUP1 ISZERO PUSH2 0x179 JUMPI PUSH1 0x0 DUP1 REVERT JUMPDEST POP PUSH2 0x194 PUSH1 0x4 DUP1 CALLDATASIZE SUB DUP2 ADD SWAP1 PUSH2 0x18F SWAP2 SWAP1 PUSH2 0x2055 JUMP JUMPDEST PUSH2 0x96F JUMP JUMPDEST PUSH1 0x40 MLOAD PUSH2 0x1A4 SWAP5 SWAP4 SWAP3 SWAP2 SWAP1 PUSH2 0x229F JUMP JUMPDEST PUSH1 0x40 MLOAD DUP1 SWAP2 SUB SWAP1 RETURN JUMPDEST CALLVALUE DUP1 ISZERO PUSH2 0x1B9 JUMPI PUSH1 0x0 DUP1 REVERT JUMPDEST POP PUSH2 0x1C2 PUSH2 0xAD9 JUMP JUMPDEST PUSH1 0x40 MLOAD PUSH2 0x1CF SWAP2 SWAP1 PUSH2 0x22E4 JUMP JUMPDEST PUSH1 0x40 MLOAD DUP1 SWAP2 SUB SWAP1 RETURN JUMPDEST CALLVALUE DUP1 ISZERO PUSH2 0x1E4 JUMPI PUSH1 0x0 DUP1 REVERT JUMPDEST POP PUSH2 0x1FF PUSH1 0x4 DUP1 CALLDATASIZE SUB DUP2 ADD SWAP1 PUSH2 0x1FA SWAP2 SWAP1 PUSH2 0x22FF JUMP JUMPDEST PUSH2 0xADF JUMP JUMPDEST STOP JUMPDEST CALLVALUE DUP1 ISZERO PUSH2 0x20D JUMPI PUSH1 0x0 DUP1 REVERT JUMPDEST POP PUSH2 0x216 PUSH2 0xD38 JUMP JUMPDEST PUSH1 0x40 MLOAD PUSH2 0x223 SWAP2 SWAP1 PUSH2 0x232C JUMP JUMPDEST PUSH1 0x40 MLOAD DUP1 SWAP2 SUB SWAP1 RETURN JUMPDEST CALLVALUE DUP1 ISZERO PUSH2 0x238 JUMPI PUSH1 0x0 DUP1 REVERT JUMPDEST POP PUSH2 0x253 PUSH1 0x4 DUP1 CALLDATASIZE SUB DUP2 ADD SWAP1 PUSH2 0x24E SWAP2 SWAP1 PUSH2 0x2347 JUMP JUMPDEST PUSH2 0xD5C JUMP JUMPDEST PUSH1 0x40 MLOAD PUSH2 0x260 SWAP2 SWAP1 PUSH2 0x2387 JUMP JUMPDEST PUSH1 0x40 MLOAD DUP1 SWAP2 SUB SWAP1 RETURN JUMPDEST CALLVALUE DUP1 ISZERO PUSH2 0x275 JUMPI PUSH1 0x0 DUP1 REVERT JUMPDEST POP PUSH2 0x27E PUSH2 0xD8B JUMP JUMPDEST PUSH1 0x40 MLOAD PUSH2 0x28B SWAP2 SWAP1 PUSH2 0x232C JUMP JUMPDEST PUSH1 0x40 MLOAD DUP1 SWAP2 SUB SWAP1 RETURN JUMPDEST CALLVALUE DUP1 ISZERO PUSH2 0x2A0 JUMPI PUSH1 0x0 DUP1 REVERT JUMPDEST POP PUSH2 0x2BB PUSH1 0x4 DUP1 CALLDATASIZE SUB DUP2 ADD SWAP1 PUSH2 0x2B6 SWAP2 SWAP1 PUSH2 0x2407 JUMP JUMPDEST PUSH2 0xDB1 JUMP JUMPDEST STOP JUMPDEST CALLVALUE DUP1 ISZERO PUSH2 0x2C9 JUMPI PUSH1 0x0 DUP1 REVERT JUMPDEST POP PUSH2 0x2E4 PUSH1 0x4 DUP1 CALLDATASIZE SUB DUP2 ADD SWAP1 PUSH2 0x2DF SWAP2 SWAP1 PUSH2 0x2055 JUMP JUMPDEST PUSH2 0x13B2 JUMP JUMPDEST STOP JUMPDEST CALLVALUE DUP1 ISZERO PUSH2 0x2F2 JUMPI PUSH1 0x0 DUP1 REVERT JUMPDEST POP PUSH2 0x30D PUSH1 0x4 DUP1 CALLDATASIZE SUB DUP2 ADD SWAP1 PUSH2 0x308 SWAP2 SWAP1 PUSH2 0x24A7 JUMP JUMPDEST PUSH2 0x1701 JUMP JUMPDEST STOP JUMPDEST CALLVALUE DUP1 ISZERO PUSH2 0x31B JUMPI PUSH1 0x0 DUP1 REVERT JUMPDEST POP PUSH2 0x336 PUSH1 0x4 DUP1 CALLDATASIZE SUB DUP2 ADD SWAP1 PUSH2 0x331 SWAP2 SWAP1 PUSH2 0x2055 JUMP JUMPDEST PUSH2 0x1CE9 JUMP JUMPDEST PUSH1 0x40 MLOAD PUSH2 0x343 SWAP2 SWAP1 PUSH2 0x25D8 JUMP JUMPDEST PUSH1 0x40 MLOAD DUP1 SWAP2 SUB SWAP1 RETURN JUMPDEST PUSH1 0x2 PUSH1 0x20 MSTORE DUP1 PUSH1 0x0 MSTORE PUSH1 0x40 PUSH1 0x0 KECCAK256 PUSH1 0x0 SWAP2 POP SWAP1 POP DUP1 PUSH1 0x0 ADD SLOAD SWAP1 DUP1 PUSH1 0x1 ADD PUSH1 0x0 SWAP1 SLOAD SWAP1 PUSH2 0x100 EXP SWAP1 DIV PUSH20 0xFFFFFFFFFFFFFFFFFFFFFFFFFFFFFFFFFFFFFFFF AND SWAP1 DUP1 PUSH1 0x2 ADD PUSH1 0x0 SWAP1 SLOAD SWAP1 PUSH2 0x100 EXP SWAP1 DIV PUSH20 0xFFFFFFFFFFFFFFFFFFFFFFFFFFFFFFFFFFFFFFFF AND SWAP1 DUP1 PUSH1 0x3 ADD SLOAD SWAP1 DUP1 PUSH1 0x4 ADD SLOAD SWAP1 DUP1 PUSH1 0x5 ADD SLOAD SWAP1 DUP1 PUSH1 0x6 ADD SLOAD SWAP1 DUP1 PUSH1 0x7 ADD PUSH1 0x0 SWAP1 SLOAD SWAP1 PUSH2 0x100 EXP SWAP1 DIV PUSH1 0xFF AND SWAP1 POP DUP9 JUMP JUMPDEST PUSH2 0x3F5 PUSH8 0xCE5256485A185ACA PUSH1 0xC0 SHL PUSH2 0x1EED JUMP JUMPDEST PUSH2 0x409 PUSH8 0xBB0107660475A7AC PUSH1 0xC0 SHL PUSH2 0x1EED JUMP JUMPDEST PUSH2 0x41D PUSH8 0xCF030244C1B7669E PUSH1 0xC0 SHL PUSH2 0x1EED JUMP JUMPDEST PUSH2 0x431 PUSH8 0xD5D5C77B924CFD6F PUSH1 0xC0 SHL PUSH2 0x1EED JUMP JUMPDEST TIMESTAMP DUP2 GT PUSH2 0x473 JUMPI PUSH1 0x40 MLOAD PUSH32 0x8C379A000000000000000000000000000000000000000000000000000000000 DUP2 MSTORE PUSH1 0x4 ADD PUSH2 0x46A SWAP1 PUSH2 0x2651 JUMP JUMPDEST PUSH1 0x40 MLOAD DUP1 SWAP2 SUB SWAP1 REVERT JUMPDEST PUSH2 0x487 PUSH8 0x3A0242FB6BC228AD PUSH1 0xC0 SHL PUSH2 0x1EED JUMP JUMPDEST PUSH2 0x49B PUSH8 0xF8F8AB184EA2A17E PUSH1 0xC0 SHL PUSH2 0x1EED JUMP JUMPDEST PUSH2 0x4AF PUSH8 0xB19BAD7C10C1068A PUSH1 0xC0 SHL PUSH2 0x1EED JUMP JUMPDEST PUSH2 0x4C3 PUSH8 0xC665391C54FBBFFF PUSH1 0xC0 SHL PUSH2 0x1EED JUMP JUMPDEST PUSH1 0x0 DUP3 GT PUSH2 0x506 JUMPI PUSH1 0x40 MLOAD PUSH32 0x8C379A000000000000000000000000000000000000000000000000000000000 DUP2 MSTORE PUSH1 0x4 ADD PUSH2 0x4FD SWAP1 PUSH2 0x26BD JUMP JUMPDEST PUSH1 0x40 MLOAD DUP1 SWAP2 SUB SWAP1 REVERT JUMPDEST PUSH2 0x51A PUSH8 0xF999DD52102357DE PUSH1 0xC0 SHL PUSH2 0x1EED JUMP JUMPDEST PUSH2 0x52E PUSH8 0x3D5B7BBC45B4886E PUSH1 0xC0 SHL PUSH2 0x1EED JUMP JUMPDEST PUSH1 0x3 PUSH1 0x0 DUP2 SLOAD DUP1 SWAP3 SWAP2 SWAP1 PUSH2 0x541 SWAP1 PUSH2 0x270C JUMP JUMPDEST SWAP2 SWAP1 POP SSTORE POP PUSH2 0x55A PUSH8 0x4717554BAF3FA97E PUSH1 0xC0 SHL PUSH2 0x1EED JUMP JUMPDEST PUSH2 0x56E PUSH8 0x2CFCC113A4DD083D PUSH1 0xC0 SHL PUSH2 0x1EED JUMP JUMPDEST PUSH1 0x0 PUSH1 0x3 SLOAD SWAP1 POP PUSH2 0x589 PUSH8 0x4633A8509F060304 PUSH1 0xC0 SHL PUSH2 0x1EED JUMP JUMPDEST PUSH1 0x40 MLOAD DUP1 PUSH2 0x100 ADD PUSH1 0x40 MSTORE DUP1 DUP3 DUP2 MSTORE PUSH1 0x20 ADD CALLER PUSH20 0xFFFFFFFFFFFFFFFFFFFFFFFFFFFFFFFFFFFFFFFF AND DUP2 MSTORE PUSH1 0x20 ADD DUP6 PUSH20 0xFFFFFFFFFFFFFFFFFFFFFFFFFFFFFFFFFFFFFFFF AND DUP2 MSTORE PUSH1 0x20 ADD DUP5 DUP2 MSTORE PUSH1 0x20 ADD DUP4 DUP2 MSTORE PUSH1 0x20 ADD PUSH1 0x0 DUP1 SHL DUP2 MSTORE PUSH1 0x20 ADD PUSH1 0x0 DUP2 MSTORE PUSH1 0x20 ADD PUSH1 0x1 ISZERO ISZERO DUP2 MSTORE POP PUSH1 0x2 PUSH1 0x0 DUP4 DUP2 MSTORE PUSH1 0x20 ADD SWAP1 DUP2 MSTORE PUSH1 0x20 ADD PUSH1 0x0 KECCAK256 PUSH1 0x0 DUP3 ADD MLOAD DUP2 PUSH1 0x0 ADD SSTORE PUSH1 0x20 DUP3 ADD MLOAD DUP2 PUSH1 0x1 ADD PUSH1 0x0 PUSH2 0x100 EXP DUP2 SLOAD DUP2 PUSH20 0xFFFFFFFFFFFFFFFFFFFFFFFFFFFFFFFFFFFFFFFF MUL NOT AND SWAP1 DUP4 PUSH20 0xFFFFFFFFFFFFFFFFFFFFFFFFFFFFFFFFFFFFFFFF AND MUL OR SWAP1 SSTORE POP PUSH1 0x40 DUP3 ADD MLOAD DUP2 PUSH1 0x2 ADD PUSH1 0x0 PUSH2 0x100 EXP DUP2 SLOAD DUP2 PUSH20 0xFFFFFFFFFFFFFFFFFFFFFFFFFFFFFFFFFFFFFFFF MUL NOT AND SWAP1 DUP4 PUSH20 0xFFFFFFFFFFFFFFFFFFFFFFFFFFFFFFFFFFFFFFFF AND MUL OR SWAP1 SSTORE POP PUSH1 0x60 DUP3 ADD MLOAD DUP2 PUSH1 0x3 ADD SSTORE PUSH1 0x80 DUP3 ADD MLOAD DUP2 PUSH1 0x4 ADD SSTORE PUSH1 0xA0 DUP3 ADD MLOAD DUP2 PUSH1 0x5 ADD SSTORE PUSH1 0xC0 DUP3 ADD MLOAD DUP2 PUSH1 0x6 ADD SSTORE PUSH1 0xE0 DUP3 ADD MLOAD DUP2 PUSH1 0x7 ADD PUSH1 0x0 PUSH2 0x100 EXP DUP2 SLOAD DUP2 PUSH1 0xFF MUL NOT AND SWAP1 DUP4 ISZERO ISZERO MUL OR SWAP1 SSTORE POP SWAP1 POP POP PUSH2 0x700 PUSH8 0xE5E30FFCC1A98A49 PUSH1 0xC0 SHL PUSH2 0x1EED JUMP JUMPDEST PUSH2 0x714 PUSH8 0xB20E10FBB849BA48 PUSH1 0xC0 SHL PUSH2 0x1EED JUMP JUMPDEST DUP4 PUSH20 0xFFFFFFFFFFFFFFFFFFFFFFFFFFFFFFFFFFFFFFFF AND PUSH4 0x23B872DD CALLER ADDRESS DUP7 PUSH1 0x40 MLOAD DUP5 PUSH4 0xFFFFFFFF AND PUSH1 0xE0 SHL DUP2 MSTORE PUSH1 0x4 ADD PUSH2 0x751 SWAP4 SWAP3 SWAP2 SWAP1 PUSH2 0x2754 JUMP JUMPDEST PUSH1 0x20 PUSH1 0x40 MLOAD DUP1 DUP4 SUB DUP2 PUSH1 0x0 DUP8 GAS CALL ISZERO DUP1 ISZERO PUSH2 0x770 JUMPI RETURNDATASIZE PUSH1 0x0 DUP1 RETURNDATACOPY RETURNDATASIZE PUSH1 0x0 REVERT JUMPDEST POP POP POP POP PUSH1 0x40 MLOAD RETURNDATASIZE PUSH1 0x1F NOT PUSH1 0x1F DUP3 ADD AND DUP3 ADD DUP1 PUSH1 0x40 MSTORE POP DUP2 ADD SWAP1 PUSH2 0x794 SWAP2 SWAP1 PUSH2 0x27B7 JUMP JUMPDEST POP POP POP POP POP JUMP JUMPDEST PUSH1 0x0 DUP1 PUSH1 0x0 DUP1 PUSH1 0x0 DUP1 PUSH1 0x0 DUP1 PUSH1 0x0 DUP1 PUSH2 0x7BE PUSH8 0x8AD9E87942CE3DF5 PUSH1 0xC0 SHL PUSH2 0x1EED JUMP JUMPDEST PUSH2 0x7D2 PUSH8 0x8D214B2CB54306A1 PUSH1 0xC0 SHL PUSH2 0x1EED JUMP JUMPDEST PUSH2 0x7E6 PUSH8 0x9685758D0A527C9D PUSH1 0xC0 SHL PUSH2 0x1EED JUMP JUMPDEST PUSH2 0x7FA PUSH8 0x199C49F7864AD368 PUSH1 0xC0 SHL PUSH2 0x1EED JUMP JUMPDEST PUSH1 0x0 DUP12 GT DUP1 ISZERO PUSH2 0x80C JUMPI POP PUSH1 0x3 SLOAD DUP12 GT ISZERO JUMPDEST PUSH2 0x84B JUMPI PUSH1 0x40 MLOAD PUSH32 0x8C379A000000000000000000000000000000000000000000000000000000000 DUP2 MSTORE PUSH1 0x4 ADD PUSH2 0x842 SWAP1 PUSH2 0x2830 JUMP JUMPDEST PUSH1 0x40 MLOAD DUP1 SWAP2 SUB SWAP1 REVERT JUMPDEST PUSH2 0x85F PUSH8 0x427FE07AEB05AE2C PUSH1 0xC0 SHL PUSH2 0x1EED JUMP JUMPDEST PUSH2 0x873 PUSH8 0x737913B6A4AC646A PUSH1 0xC0 SHL PUSH2 0x1EED JUMP JUMPDEST PUSH2 0x887 PUSH8 0x7682ED69FCEB68B5 PUSH1 0xC0 SHL PUSH2 0x1EED JUMP JUMPDEST PUSH1 0x0 PUSH1 0x2 PUSH1 0x0 DUP14 DUP2 MSTORE PUSH1 0x20 ADD SWAP1 DUP2 MSTORE PUSH1 0x20 ADD PUSH1 0x0 KECCAK256 SWAP1 POP PUSH2 0x8B2 PUSH8 0x8397E163C70C4818 PUSH1 0xC0 SHL PUSH2 0x1EED JUMP JUMPDEST PUSH2 0x8C6 PUSH8 0x4E93427039ECB44 PUSH1 0xC0 SHL PUSH2 0x1EED JUMP JUMPDEST DUP1 PUSH1 0x0 ADD SLOAD DUP2 PUSH1 0x1 ADD PUSH1 0x0 SWAP1 SLOAD SWAP1 PUSH2 0x100 EXP SWAP1 DIV PUSH20 0xFFFFFFFFFFFFFFFFFFFFFFFFFFFFFFFFFFFFFFFF AND DUP3 PUSH1 0x2 ADD PUSH1 0x0 SWAP1 SLOAD SWAP1 PUSH2 0x100 EXP SWAP1 DIV PUSH20 0xFFFFFFFFFFFFFFFFFFFFFFFFFFFFFFFFFFFFFFFF AND DUP4 PUSH1 0x3 ADD SLOAD DUP5 PUSH1 0x4 ADD SLOAD DUP6 PUSH1 0x5 ADD SLOAD DUP7 PUSH1 0x6 ADD SLOAD DUP8 PUSH1 0x7 ADD PUSH1 0x0 SWAP1 SLOAD SWAP1 PUSH2 0x100 EXP SWAP1 DIV PUSH1 0xFF AND DUP9 PUSH1 0x4 ADD SLOAD TIMESTAMP GT PUSH1 0x0 DUP1 SHL DUP11 PUSH1 0x5 ADD SLOAD EQ ISZERO SWAP11 POP SWAP11 POP SWAP11 POP SWAP11 POP SWAP11 POP SWAP11 POP SWAP11 POP SWAP11 POP SWAP11 POP SWAP11 POP POP SWAP2 SWAP4 SWAP6 SWAP8 SWAP10 POP SWAP2 SWAP4 SWAP6 SWAP8 SWAP10 JUMP JUMPDEST PUSH1 0x0 DUP1 PUSH1 0x0 DUP1 PUSH2 0x989 PUSH8 0xA5A9279F117E8AA9 PUSH1 0xC0 SHL PUSH2 0x1EED JUMP JUMPDEST PUSH2 0x99D PUSH8 0x1A498FFC0E64316A PUSH1 0xC0 SHL PUSH2 0x1EED JUMP JUMPDEST PUSH2 0x9B1 PUSH8 0x959342CD563E027E PUSH1 0xC0 SHL PUSH2 0x1EED JUMP JUMPDEST PUSH2 0x9C5 PUSH8 0xEE4EA39DC7854808 PUSH1 0xC0 SHL PUSH2 0x1EED JUMP JUMPDEST PUSH1 0x0 DUP6 GT DUP1 ISZERO PUSH2 0x9D7 JUMPI POP PUSH1 0x3 SLOAD DUP6 GT ISZERO JUMPDEST PUSH2 0xA16 JUMPI PUSH1 0x40 MLOAD PUSH32 0x8C379A000000000000000000000000000000000000000000000000000000000 DUP2 MSTORE PUSH1 0x4 ADD PUSH2 0xA0D SWAP1 PUSH2 0x2830 JUMP JUMPDEST PUSH1 0x40 MLOAD DUP1 SWAP2 SUB SWAP1 REVERT JUMPDEST PUSH2 0xA2A PUSH8 0xCD0A9474D1145587 PUSH1 0xC0 SHL PUSH2 0x1EED JUMP JUMPDEST PUSH2 0xA3E PUSH8 0xE968754EE83C62F6 PUSH1 0xC0 SHL PUSH2 0x1EED JUMP JUMPDEST PUSH2 0xA52 PUSH8 0x4A445890B4BB9F1D PUSH1 0xC0 SHL PUSH2 0x1EED JUMP JUMPDEST PUSH1 0x0 PUSH1 0x2 PUSH1 0x0 DUP8 DUP2 MSTORE PUSH1 0x20 ADD SWAP1 DUP2 MSTORE PUSH1 0x20 ADD PUSH1 0x0 KECCAK256 SWAP1 POP PUSH2 0xA7D PUSH8 0xB7EA902F44CE569D PUSH1 0xC0 SHL PUSH2 0x1EED JUMP JUMPDEST PUSH2 0xA91 PUSH8 0xFF066632B0C9E2B3 PUSH1 0xC0 SHL PUSH2 0x1EED JUMP JUMPDEST DUP1 PUSH1 0x4 ADD SLOAD TIMESTAMP GT PUSH1 0x0 DUP1 SHL DUP3 PUSH1 0x5 ADD SLOAD EQ ISZERO DUP3 PUSH1 0x7 ADD PUSH1 0x0 SWAP1 SLOAD SWAP1 PUSH2 0x100 EXP SWAP1 DIV PUSH1 0xFF AND DUP4 PUSH1 0x6 ADD SLOAD DUP5 PUSH1 0x3 ADD SLOAD PUSH2 0xAC9 SWAP2 SWAP1 PUSH2 0x2850 JUMP JUMPDEST SWAP5 POP SWAP5 POP SWAP5 POP SWAP5 POP POP SWAP2 SWAP4 POP SWAP2 SWAP4 JUMP JUMPDEST PUSH1 0x3 SLOAD DUP2 JUMP JUMPDEST PUSH2 0xAF3 PUSH8 0x65D9DB39213A1C4E PUSH1 0xC0 SHL PUSH2 0x1EED JUMP JUMPDEST PUSH2 0xB07 PUSH8 0x9E7739D6CC30DDA6 PUSH1 0xC0 SHL PUSH2 0x1EED JUMP JUMPDEST PUSH2 0xB1B PUSH8 0x8A98E8392F0C3444 PUSH1 0xC0 SHL PUSH2 0x1EED JUMP JUMPDEST PUSH2 0xB2F PUSH8 0xAFD9EF7F857ED649 PUSH1 0xC0 SHL PUSH2 0x1EED JUMP JUMPDEST PUSH2 0xB43 PUSH8 0x90D785C98B3B9809 PUSH1 0xC0 SHL PUSH2 0x1EED JUMP JUMPDEST PUSH1 0x1 PUSH1 0x0 SWAP1 SLOAD SWAP1 PUSH2 0x100 EXP SWAP1 DIV PUSH20 0xFFFFFFFFFFFFFFFFFFFFFFFFFFFFFFFFFFFFFFFF AND PUSH20 0xFFFFFFFFFFFFFFFFFFFFFFFFFFFFFFFFFFFFFFFF AND CALLER PUSH20 0xFFFFFFFFFFFFFFFFFFFFFFFFFFFFFFFFFFFFFFFF AND EQ PUSH2 0xBD3 JUMPI PUSH1 0x40 MLOAD PUSH32 0x8C379A000000000000000000000000000000000000000000000000000000000 DUP2 MSTORE PUSH1 0x4 ADD PUSH2 0xBCA SWAP1 PUSH2 0x28F6 JUMP JUMPDEST PUSH1 0x40 MLOAD DUP1 SWAP2 SUB SWAP1 REVERT JUMPDEST PUSH2 0xBE7 PUSH8 0x9DE32F0CCD251B94 PUSH1 0xC0 SHL PUSH2 0x1EED JUMP JUMPDEST PUSH2 0xBFB PUSH8 0xD25AC69E2B14ABF PUSH1 0xC0 SHL PUSH2 0x1EED JUMP JUMPDEST PUSH2 0xC0F PUSH8 0xCB519C4499FF8D13 PUSH1 0xC0 SHL PUSH2 0x1EED JUMP JUMPDEST PUSH2 0xC23 PUSH8 0xC9C3C9E8860F9984 PUSH1 0xC0 SHL PUSH2 0x1EED JUMP JUMPDEST PUSH2 0xC37 PUSH8 0xAC5AF425F6A324C7 PUSH1 0xC0 SHL PUSH2 0x1EED JUMP JUMPDEST PUSH2 0xC4B PUSH8 0x7DB6C6011D044223 PUSH1 0xC0 SHL PUSH2 0x1EED JUMP JUMPDEST PUSH2 0xC5E PUSH7 0x8A605BC681726E PUSH1 0xC0 SHL PUSH2 0x1EED JUMP JUMPDEST PUSH1 0x0 PUSH20 0xFFFFFFFFFFFFFFFFFFFFFFFFFFFFFFFFFFFFFFFF AND DUP2 PUSH20 0xFFFFFFFFFFFFFFFFFFFFFFFFFFFFFFFFFFFFFFFF AND SUB PUSH2 0xCCD JUMPI PUSH1 0x40 MLOAD PUSH32 0x8C379A000000000000000000000000000000000000000000000000000000000 DUP2 MSTORE PUSH1 0x4 ADD PUSH2 0xCC4 SWAP1 PUSH2 0x2962 JUMP JUMPDEST PUSH1 0x40 MLOAD DUP1 SWAP2 SUB SWAP1 REVERT JUMPDEST PUSH2 0xCE1 PUSH8 0x1DA0E698EA322A02 PUSH1 0xC0 SHL PUSH2 0x1EED JUMP JUMPDEST PUSH2 0xCF5 PUSH8 0x7DDB251C253D169B PUSH1 0xC0 SHL PUSH2 0x1EED JUMP JUMPDEST DUP1 PUSH1 0x0 DUP1 PUSH2 0x100 EXP DUP2 SLOAD DUP2 PUSH20 0xFFFFFFFFFFFFFFFFFFFFFFFFFFFFFFFFFFFFFFFF MUL NOT AND SWAP1 DUP4 PUSH20 0xFFFFFFFFFFFFFFFFFFFFFFFFFFFFFFFFFFFFFFFF AND MUL OR SWAP1 SSTORE POP POP JUMP JUMPDEST PUSH1 0x0 DUP1 SLOAD SWAP1 PUSH2 0x100 EXP SWAP1 DIV PUSH20 0xFFFFFFFFFFFFFFFFFFFFFFFFFFFFFFFFFFFFFFFF AND DUP2 JUMP JUMPDEST PUSH1 0x4 PUSH1 0x20 MSTORE DUP2 PUSH1 0x0 MSTORE PUSH1 0x40 PUSH1 0x0 KECCAK256 PUSH1 0x20 MSTORE DUP1 PUSH1 0x0 MSTORE PUSH1 0x40 PUSH1 0x0 KECCAK256 PUSH1 0x0 SWAP2 POP SWAP2 POP SWAP1 SLOAD SWAP1 PUSH2 0x100 EXP SWAP1 DIV PUSH1 0xFF AND DUP2 JUMP JUMPDEST PUSH1 0x1 PUSH1 0x0 SWAP1 SLOAD SWAP1 PUSH2 0x100 EXP SWAP1 DIV PUSH20 0xFFFFFFFFFFFFFFFFFFFFFFFFFFFFFFFFFFFFFFFF AND DUP2 JUMP JUMPDEST PUSH2 0xDC5 PUSH8 0xD6C003B68F4E59E4 PUSH1 0xC0 SHL PUSH2 0x1EED JUMP JUMPDEST PUSH2 0xDD9 PUSH8 0x9863545D01B44D48 PUSH1 0xC0 SHL PUSH2 0x1EED JUMP JUMPDEST PUSH2 0xDED PUSH8 0x3DDB62AFF4B40AB4 PUSH1 0xC0 SHL PUSH2 0x1EED JUMP JUMPDEST PUSH1 0x0 PUSH1 0x2 PUSH1 0x0 DUP7 DUP2 MSTORE PUSH1 0x20 ADD SWAP1 DUP2 MSTORE PUSH1 0x20 ADD PUSH1 0x0 KECCAK256 SWAP1 POP PUSH2 0xE18 PUSH8 0xB2A735644B33DD48 PUSH1 0xC0 SHL PUSH2 0x1EED JUMP JUMPDEST PUSH2 0xE2C PUSH8 0x8C208E59A4D9FDC1 PUSH1 0xC0 SHL PUSH2 0x1EED JUMP JUMPDEST PUSH2 0xE40 PUSH8 0x89A0744C8338861D PUSH1 0xC0 SHL PUSH2 0x1EED JUMP JUMPDEST PUSH1 0x0 DUP2 PUSH1 0x0 ADD SLOAD SUB PUSH2 0xE87 JUMPI PUSH1 0x40 MLOAD PUSH32 0x8C379A000000000000000000000000000000000000000000000000000000000 DUP2 MSTORE PUSH1 0x4 ADD PUSH2 0xE7E SWAP1 PUSH2 0x2830 JUMP JUMPDEST PUSH1 0x40 MLOAD DUP1 SWAP2 SUB SWAP1 REVERT JUMPDEST PUSH2 0xE9B PUSH8 0xA79A728E1680F73B PUSH1 0xC0 SHL PUSH2 0x1EED JUMP JUMPDEST PUSH2 0xEAF PUSH8 0xD31BC81762009EEB PUSH1 0xC0 SHL PUSH2 0x1EED JUMP JUMPDEST PUSH2 0xEC3 PUSH8 0xACE0B494906D6B63 PUSH1 0xC0 SHL PUSH2 0x1EED JUMP JUMPDEST PUSH2 0xED7 PUSH8 0xB1C4E018A23EFEC1 PUSH1 0xC0 SHL PUSH2 0x1EED JUMP JUMPDEST PUSH1 0x0 DUP1 SHL DUP2 PUSH1 0x5 ADD SLOAD SUB PUSH2 0xF20 JUMPI PUSH1 0x40 MLOAD PUSH32 0x8C379A000000000000000000000000000000000000000000000000000000000 DUP2 MSTORE PUSH1 0x4 ADD PUSH2 0xF17 SWAP1 PUSH2 0x29CE JUMP JUMPDEST PUSH1 0x40 MLOAD DUP1 SWAP2 SUB SWAP1 REVERT JUMPDEST PUSH2 0xF34 PUSH8 0xE01531C36E1DAC91 PUSH1 0xC0 SHL PUSH2 0x1EED JUMP JUMPDEST PUSH2 0xF48 PUSH8 0xD417BE2C943943E4 PUSH1 0xC0 SHL PUSH2 0x1EED JUMP JUMPDEST PUSH2 0xF5C PUSH8 0xFEB8F9F1AFF0C01F PUSH1 0xC0 SHL PUSH2 0x1EED JUMP JUMPDEST PUSH2 0xF70 PUSH8 0xA004017BDBA80CC0 PUSH1 0xC0 SHL PUSH2 0x1EED JUMP JUMPDEST PUSH1 0x4 PUSH1 0x0 DUP7 DUP2 MSTORE PUSH1 0x20 ADD SWAP1 DUP2 MSTORE PUSH1 0x20 ADD PUSH1 0x0 KECCAK256 PUSH1 0x0 CALLER PUSH20 0xFFFFFFFFFFFFFFFFFFFFFFFFFFFFFFFFFFFFFFFF AND PUSH20 0xFFFFFFFFFFFFFFFFFFFFFFFFFFFFFFFFFFFFFFFF AND DUP2 MSTORE PUSH1 0x20 ADD SWAP1 DUP2 MSTORE PUSH1 0x20 ADD PUSH1 0x0 KECCAK256 PUSH1 0x0 SWAP1 SLOAD SWAP1 PUSH2 0x100 EXP SWAP1 DIV PUSH1 0xFF AND ISZERO PUSH2 0x100E JUMPI PUSH1 0x40 MLOAD PUSH32 0x8C379A000000000000000000000000000000000000000000000000000000000 DUP2 MSTORE PUSH1 0x4 ADD PUSH2 0x1005 SWAP1 PUSH2 0x2A3A JUMP JUMPDEST PUSH1 0x40 MLOAD DUP1 SWAP2 SUB SWAP1 REVERT JUMPDEST PUSH2 0x1022 PUSH8 0xB031FBE177039206 PUSH1 0xC0 SHL PUSH2 0x1EED JUMP JUMPDEST PUSH2 0x1036 PUSH8 0x8FC853F547542134 PUSH1 0xC0 SHL PUSH2 0x1EED JUMP JUMPDEST PUSH2 0x104A PUSH8 0x73529F78BE6F5E21 PUSH1 0xC0 SHL PUSH2 0x1EED JUMP JUMPDEST PUSH2 0x105E PUSH8 0x4D506B2E7FE60C5D PUSH1 0xC0 SHL PUSH2 0x1EED JUMP JUMPDEST PUSH1 0x0 DUP5 GT PUSH2 0x10A1 JUMPI PUSH1 0x40 MLOAD PUSH32 0x8C379A000000000000000000000000000000000000000000000000000000000 DUP2 MSTORE PUSH1 0x4 ADD PUSH2 0x1098 SWAP1 PUSH2 0x2AA6 JUMP JUMPDEST PUSH1 0x40 MLOAD DUP1 SWAP2 SUB SWAP1 REVERT JUMPDEST PUSH2 0x10B5 PUSH8 0xDBB9C0884E4800B1 PUSH1 0xC0 SHL PUSH2 0x1EED JUMP JUMPDEST PUSH2 0x10C9 PUSH8 0x95A8410CB649C211 PUSH1 0xC0 SHL PUSH2 0x1EED JUMP JUMPDEST PUSH2 0x10DD PUSH8 0x56B2BB121CF57485 PUSH1 0xC0 SHL PUSH2 0x1EED JUMP JUMPDEST PUSH1 0x0 CALLER DUP6 PUSH1 0x40 MLOAD PUSH1 0x20 ADD PUSH2 0x10F2 SWAP3 SWAP2 SWAP1 PUSH2 0x2B2F JUMP JUMPDEST PUSH1 0x40 MLOAD PUSH1 0x20 DUP2 DUP4 SUB SUB DUP2 MSTORE SWAP1 PUSH1 0x40 MSTORE DUP1 MLOAD SWAP1 PUSH1 0x20 ADD KECCAK256 SWAP1 POP PUSH2 0x111E PUSH8 0x9DA5208AF511A08E PUSH1 0xC0 SHL PUSH2 0x1EED JUMP JUMPDEST PUSH2 0x1132 PUSH8 0xDD6FC087FC66768A PUSH1 0xC0 SHL PUSH2 0x1EED JUMP JUMPDEST PUSH2 0x1146 PUSH8 0x26E2CB7D5AF844ED PUSH1 0xC0 SHL PUSH2 0x1EED JUMP JUMPDEST PUSH2 0x1196 DUP5 DUP5 DUP1 DUP1 PUSH1 0x20 MUL PUSH1 0x20 ADD PUSH1 0x40 MLOAD SWAP1 DUP2 ADD PUSH1 0x40 MSTORE DUP1 SWAP4 SWAP3 SWAP2 SWAP1 DUP2 DUP2 MSTORE PUSH1 0x20 ADD DUP4 DUP4 PUSH1 0x20 MUL DUP1 DUP3 DUP5 CALLDATACOPY PUSH1 0x0 DUP2 DUP5 ADD MSTORE PUSH1 0x1F NOT PUSH1 0x1F DUP3 ADD AND SWAP1 POP DUP1 DUP4 ADD SWAP3 POP POP POP POP POP POP POP DUP4 PUSH1 0x5 ADD SLOAD DUP4 PUSH2 0x1EF0 JUMP JUMPDEST PUSH2 0x11D5 JUMPI PUSH1 0x40 MLOAD PUSH32 0x8C379A000000000000000000000000000000000000000000000000000000000 DUP2 MSTORE PUSH1 0x4 ADD PUSH2 0x11CC SWAP1 PUSH2 0x2BA7 JUMP JUMPDEST PUSH1 0x40 MLOAD DUP1 SWAP2 SUB SWAP1 REVERT JUMPDEST PUSH2 0x11E9 PUSH8 0x262B81F596BD2B97 PUSH1 0xC0 SHL PUSH2 0x1EED JUMP JUMPDEST PUSH2 0x11FD PUSH8 0x542421BF4F9501CD PUSH1 0xC0 SHL PUSH2 0x1EED JUMP JUMPDEST PUSH1 0x1 PUSH1 0x4 PUSH1 0x0 DUP9 DUP2 MSTORE PUSH1 0x20 ADD SWAP1 DUP2 MSTORE PUSH1 0x20 ADD PUSH1 0x0 KECCAK256 PUSH1 0x0 CALLER PUSH20 0xFFFFFFFFFFFFFFFFFFFFFFFFFFFFFFFFFFFFFFFF AND PUSH20 0xFFFFFFFFFFFFFFFFFFFFFFFFFFFFFFFFFFFFFFFF AND DUP2 MSTORE PUSH1 0x20 ADD SWAP1 DUP2 MSTORE PUSH1 0x20 ADD PUSH1 0x0 KECCAK256 PUSH1 0x0 PUSH2 0x100 EXP DUP2 SLOAD DUP2 PUSH1 0xFF MUL NOT AND SWAP1 DUP4 ISZERO ISZERO MUL OR SWAP1 SSTORE POP PUSH2 0x127A PUSH8 0x276CEA5A49A4D138 PUSH1 0xC0 SHL PUSH2 0x1EED JUMP JUMPDEST PUSH2 0x128E PUSH8 0x4F63D9BE667A9EE4 PUSH1 0xC0 SHL PUSH2 0x1EED JUMP JUMPDEST DUP2 PUSH1 0x2 ADD PUSH1 0x0 SWAP1 SLOAD SWAP1 PUSH2 0x100 EXP SWAP1 DIV PUSH20 0xFFFFFFFFFFFFFFFFFFFFFFFFFFFFFFFFFFFFFFFF AND PUSH20 0xFFFFFFFFFFFFFFFFFFFFFFFFFFFFFFFFFFFFFFFF AND PUSH4 0xA9059CBB CALLER DUP8 PUSH1 0x40 MLOAD DUP4 PUSH4 0xFFFFFFFF AND PUSH1 0xE0 SHL DUP2 MSTORE PUSH1 0x4 ADD PUSH2 0x12ED SWAP3 SWAP2 SWAP1 PUSH2 0x2BC7 JUMP JUMPDEST PUSH1 0x20 PUSH1 0x40 MLOAD DUP1 DUP4 SUB DUP2 PUSH1 0x0 DUP8 GAS CALL ISZERO DUP1 ISZERO PUSH2 0x130C JUMPI RETURNDATASIZE PUSH1 0x0 DUP1 RETURNDATACOPY RETURNDATASIZE PUSH1 0x0 REVERT JUMPDEST POP POP POP POP PUSH1 0x40 MLOAD RETURNDATASIZE PUSH1 0x1F NOT PUSH1 0x1F DUP3 ADD AND DUP3 ADD DUP1 PUSH1 0x40 MSTORE POP DUP2 ADD SWAP1 PUSH2 0x1330 SWAP2 SWAP1 PUSH2 0x27B7 JUMP JUMPDEST POP PUSH2 0x1345 PUSH8 0x6184BB7DDDF70340 PUSH1 0xC0 SHL PUSH2 0x1EED JUMP JUMPDEST PUSH2 0x1359 PUSH8 0x10CC3A8B1594900D PUSH1 0xC0 SHL PUSH2 0x1EED JUMP JUMPDEST CALLER PUSH20 0xFFFFFFFFFFFFFFFFFFFFFFFFFFFFFFFFFFFFFFFF AND DUP7 PUSH32 0xFC6ECD966B430510BEAE9124EFE7DD517ED5286D7ED0AE258F8556C7A9765A44 DUP8 TIMESTAMP PUSH1 0x40 MLOAD PUSH2 0x13A2 SWAP3 SWAP2 SWAP1 PUSH2 0x2BF0 JUMP JUMPDEST PUSH1 0x40 MLOAD DUP1 SWAP2 SUB SWAP1 LOG3 POP POP POP POP POP POP JUMP JUMPDEST PUSH2 0x13C6 PUSH8 0xC28BA1A950E5EC1E PUSH1 0xC0 SHL PUSH2 0x1EED JUMP JUMPDEST PUSH2 0x13DA PUSH8 0xBDA916EAAE4C73B6 PUSH1 0xC0 SHL PUSH2 0x1EED JUMP JUMPDEST PUSH2 0x13EE PUSH8 0x9C3B25D94D5F7A62 PUSH1 0xC0 SHL PUSH2 0x1EED JUMP JUMPDEST PUSH2 0x1402 PUSH8 0x2CF9E3C511408D45 PUSH1 0xC0 SHL PUSH2 0x1EED JUMP JUMPDEST PUSH1 0x0 PUSH1 0x2 PUSH1 0x0 DUP4 DUP2 MSTORE PUSH1 0x20 ADD SWAP1 DUP2 MSTORE PUSH1 0x20 ADD PUSH1 0x0 KECCAK256 PUSH1 0x0 ADD SLOAD SUB PUSH2 0x145B JUMPI PUSH1 0x40 MLOAD PUSH32 0x8C379A000000000000000000000000000000000000000000000000000000000 DUP2 MSTORE PUSH1 0x4 ADD PUSH2 0x1452 SWAP1 PUSH2 0x2830 JUMP JUMPDEST PUSH1 0x40 MLOAD DUP1 SWAP2 SUB SWAP1 REVERT JUMPDEST PUSH2 0x146F PUSH8 0x7BA271AD69B85B85 PUSH1 0xC0 SHL PUSH2 0x1EED JUMP JUMPDEST PUSH2 0x1483 PUSH8 0x51A3A2547BE5A793 PUSH1 0xC0 SHL PUSH2 0x1EED JUMP JUMPDEST PUSH2 0x1497 PUSH8 0x8C71AC656786ED7B PUSH1 0xC0 SHL PUSH2 0x1EED JUMP JUMPDEST PUSH2 0x14AB PUSH8 0x14D098AD508AED5A PUSH1 0xC0 SHL PUSH2 0x1EED JUMP JUMPDEST PUSH1 0x2 PUSH1 0x0 DUP3 DUP2 MSTORE PUSH1 0x20 ADD SWAP1 DUP2 MSTORE PUSH1 0x20 ADD PUSH1 0x0 KECCAK256 PUSH1 0x7 ADD PUSH1 0x0 SWAP1 SLOAD SWAP1 PUSH2 0x100 EXP SWAP1 DIV PUSH1 0xFF AND PUSH2 0x150E JUMPI PUSH1 0x40 MLOAD PUSH32 0x8C379A000000000000000000000000000000000000000000000000000000000 DUP2 MSTORE PUSH1 0x4 ADD PUSH2 0x1505 SWAP1 PUSH2 0x2C65 JUMP JUMPDEST PUSH1 0x40 MLOAD DUP1 SWAP2 SUB SWAP1 REVERT JUMPDEST PUSH2 0x1522 PUSH8 0x6D9EBE5E36AC77FF PUSH1 0xC0 SHL PUSH2 0x1EED JUMP JUMPDEST PUSH2 0x1536 PUSH8 0x295A25CAFACD5303 PUSH1 0xC0 SHL PUSH2 0x1EED JUMP JUMPDEST PUSH2 0x154A PUSH8 0x5E33C92F9B22B80A PUSH1 0xC0 SHL PUSH2 0x1EED JUMP JUMPDEST PUSH2 0x155E PUSH8 0xB40644BD7FB89601 PUSH1 0xC0 SHL PUSH2 0x1EED JUMP JUMPDEST PUSH1 0x2 PUSH1 0x0 DUP3 DUP2 MSTORE PUSH1 0x20 ADD SWAP1 DUP2 MSTORE PUSH1 0x20 ADD PUSH1 0x0 KECCAK256 PUSH1 0x1 ADD PUSH1 0x0 SWAP1 SLOAD SWAP1 PUSH2 0x100 EXP SWAP1 DIV PUSH20 0xFFFFFFFFFFFFFFFFFFFFFFFFFFFFFFFFFFFFFFFF AND PUSH20 0xFFFFFFFFFFFFFFFFFFFFFFFFFFFFFFFFFFFFFFFF AND CALLER PUSH20 0xFFFFFFFFFFFFFFFFFFFFFFFFFFFFFFFFFFFFFFFF AND EQ PUSH2 0x1602 JUMPI PUSH1 0x40 MLOAD PUSH32 0x8C379A000000000000000000000000000000000000000000000000000000000 DUP2 MSTORE PUSH1 0x4 ADD PUSH2 0x15F9 SWAP1 PUSH2 0x2CD1 JUMP JUMPDEST PUSH1 0x40 MLOAD DUP1 SWAP2 SUB SWAP1 REVERT JUMPDEST PUSH2 0x1616 PUSH8 0x74C06881EE25AC65 PUSH1 0xC0 SHL PUSH2 0x1EED JUMP JUMPDEST PUSH2 0x162A PUSH8 0x5881EB376DCB3103 PUSH1 0xC0 SHL PUSH2 0x1EED JUMP JUMPDEST PUSH2 0x163E PUSH8 0xCC75F749319576EC PUSH1 0xC0 SHL PUSH2 0x1EED JUMP JUMPDEST PUSH1 0x0 PUSH1 0x2 PUSH1 0x0 DUP4 DUP2 MSTORE PUSH1 0x20 ADD SWAP1 DUP2 MSTORE PUSH1 0x20 ADD PUSH1 0x0 KECCAK256 SWAP1 POP PUSH2 0x1669 PUSH8 0x48C541D728235C09 PUSH1 0xC0 SHL PUSH2 0x1EED JUMP JUMPDEST PUSH1 0x0 DUP2 PUSH1 0x7 ADD PUSH1 0x0 PUSH2 0x100 EXP DUP2 SLOAD DUP2 PUSH1 0xFF MUL NOT AND SWAP1 DUP4 ISZERO ISZERO MUL OR SWAP1 SSTORE POP PUSH2 0x169A PUSH8 0x692E48FD39E59B3B PUSH1 0xC0 SHL PUSH2 0x1EED JUMP JUMPDEST PUSH2 0x16AE PUSH8 0x9EAF5758CECF7713 PUSH1 0xC0 SHL PUSH2 0x1EED JUMP JUMPDEST CALLER PUSH20 0xFFFFFFFFFFFFFFFFFFFFFFFFFFFFFFFFFFFFFFFF AND DUP3 PUSH32 0xE120B15313F47B70C9196F36751E63AA50B67CF9316C6B5D695B4AD33CE2076F TIMESTAMP PUSH1 0x40 MLOAD PUSH2 0x16F5 SWAP2 SWAP1 PUSH2 0x22E4 JUMP JUMPDEST PUSH1 0x40 MLOAD DUP1 SWAP2 SUB SWAP1 LOG3 POP POP JUMP JUMPDEST PUSH2 0x1715 PUSH8 0x53ABE6E9CAEDB966 PUSH1 0xC0 SHL PUSH2 0x1EED JUMP JUMPDEST PUSH2 0x1729 PUSH8 0xC00DA440F5B57807 PUSH1 0xC0 SHL PUSH2 0x1EED JUMP JUMPDEST PUSH2 0x173D PUSH8 0x43864822AC29142F PUSH1 0xC0 SHL PUSH2 0x1EED JUMP JUMPDEST PUSH2 0x1751 PUSH8 0xB1D13D34E568D189 PUSH1 0xC0 SHL PUSH2 0x1EED JUMP JUMPDEST PUSH2 0x1765 PUSH8 0xDA8B33B1CCD113DF PUSH1 0xC0 SHL PUSH2 0x1EED JUMP JUMPDEST PUSH1 0x0 DUP1 SLOAD SWAP1 PUSH2 0x100 EXP SWAP1 DIV PUSH20 0xFFFFFFFFFFFFFFFFFFFFFFFFFFFFFFFFFFFFFFFF AND PUSH20 0xFFFFFFFFFFFFFFFFFFFFFFFFFFFFFFFFFFFFFFFF AND CALLER PUSH20 0xFFFFFFFFFFFFFFFFFFFFFFFFFFFFFFFFFFFFFFFF AND EQ PUSH2 0x17F3 JUMPI PUSH1 0x40 MLOAD PUSH32 0x8C379A000000000000000000000000000000000000000000000000000000000 DUP2 MSTORE PUSH1 0x4 ADD PUSH2 0x17EA SWAP1 PUSH2 0x2D63 JUMP JUMPDEST PUSH1 0x40 MLOAD DUP1 SWAP2 SUB SWAP1 REVERT JUMPDEST PUSH2 0x1807 PUSH8 0x529649189FB9FD86 PUSH1 0xC0 SHL PUSH2 0x1EED JUMP JUMPDEST PUSH2 0x181B PUSH8 0x79AA178C3D29CF95 PUSH1 0xC0 SHL PUSH2 0x1EED JUMP JUMPDEST PUSH2 0x182F PUSH8 0xE4A61AC82B095AFA PUSH1 0xC0 SHL PUSH2 0x1EED JUMP JUMPDEST PUSH2 0x1843 PUSH8 0xBEA6C43B8A463FE0 PUSH1 0xC0 SHL PUSH2 0x1EED JUMP JUMPDEST PUSH2 0x1857 PUSH8 0xDA555411A14EB5EC PUSH1 0xC0 SHL PUSH2 0x1EED JUMP JUMPDEST PUSH2 0x186B PUSH8 0x285173F9028E7959 PUSH1 0xC0 SHL PUSH2 0x1EED JUMP JUMPDEST PUSH1 0x0 PUSH1 0x2 PUSH1 0x0 DUP6 DUP2 MSTORE PUSH1 0x20 ADD SWAP1 DUP2 MSTORE PUSH1 0x20 ADD PUSH1 0x0 KECCAK256 SWAP1 POP PUSH2 0x1896 PUSH8 0x295B49781F9C9902 PUSH1 0xC0 SHL PUSH2 0x1EED JUMP JUMPDEST PUSH2 0x18AA PUSH8 0x4BFFEE94553D2E2E PUSH1 0xC0 SHL PUSH2 0x1EED JUMP JUMPDEST PUSH2 0x18BE PUSH8 0xE3983FEC82338D3D PUSH1 0xC0 SHL PUSH2 0x1EED JUMP JUMPDEST PUSH1 0x0 DUP2 PUSH1 0x0 ADD SLOAD SUB PUSH2 0x1905 JUMPI PUSH1 0x40 MLOAD PUSH32 0x8C379A000000000000000000000000000000000000000000000000000000000 DUP2 MSTORE PUSH1 0x4 ADD PUSH2 0x18FC SWAP1 PUSH2 0x2830 JUMP JUMPDEST PUSH1 0x40 MLOAD DUP1 SWAP2 SUB SWAP1 REVERT JUMPDEST PUSH2 0x1919 PUSH8 0xE660E4E0C4231C1B PUSH1 0xC0 SHL PUSH2 0x1EED JUMP JUMPDEST PUSH2 0x192D PUSH8 0x5849AB8E56D0B83F PUSH1 0xC0 SHL PUSH2 0x1EED JUMP JUMPDEST PUSH2 0x1941 PUSH8 0xB333ACF5B4E7382 PUSH1 0xC0 SHL PUSH2 0x1EED JUMP JUMPDEST PUSH2 0x1955 PUSH8 0xEE3D4428338C72AD PUSH1 0xC0 SHL PUSH2 0x1EED JUMP JUMPDEST DUP1 PUSH1 0x7 ADD PUSH1 0x0 SWAP1 SLOAD SWAP1 PUSH2 0x100 EXP SWAP1 DIV PUSH1 0xFF AND PUSH2 0x19A6 JUMPI PUSH1 0x40 MLOAD PUSH32 0x8C379A000000000000000000000000000000000000000000000000000000000 DUP2 MSTORE PUSH1 0x4 ADD PUSH2 0x199D SWAP1 PUSH2 0x2DCF JUMP JUMPDEST PUSH1 0x40 MLOAD DUP1 SWAP2 SUB SWAP1 REVERT JUMPDEST PUSH2 0x19BA PUSH8 0x27CAA66AE26B3135 PUSH1 0xC0 SHL PUSH2 0x1EED JUMP JUMPDEST PUSH2 0x19CE PUSH8 0x49D1F7E88A604B6F PUSH1 0xC0 SHL PUSH2 0x1EED JUMP JUMPDEST PUSH2 0x19E2 PUSH8 0xE917DC02606D6237 PUSH1 0xC0 SHL PUSH2 0x1EED JUMP JUMPDEST PUSH2 0x19F6 PUSH8 0x200B58E234D84BA3 PUSH1 0xC0 SHL PUSH2 0x1EED JUMP JUMPDEST DUP1 PUSH1 0x4 ADD SLOAD TIMESTAMP GT PUSH2 0x1A3C JUMPI PUSH1 0x40 MLOAD PUSH32 0x8C379A000000000000000000000000000000000000000000000000000000000 DUP2 MSTORE PUSH1 0x4 ADD PUSH2 0x1A33 SWAP1 PUSH2 0x2E3B JUMP JUMPDEST PUSH1 0x40 MLOAD DUP1 SWAP2 SUB SWAP1 REVERT JUMPDEST PUSH2 0x1A50 PUSH8 0xB6E27FA1E546AAF6 PUSH1 0xC0 SHL PUSH2 0x1EED JUMP JUMPDEST PUSH2 0x1A64 PUSH8 0x4814A162D4679E4D PUSH1 0xC0 SHL PUSH2 0x1EED JUMP JUMPDEST PUSH2 0x1A78 PUSH8 0xF8012AAE73D01F7D PUSH1 0xC0 SHL PUSH2 0x1EED JUMP JUMPDEST PUSH2 0x1A8C PUSH8 0xC0D53495B7895525 PUSH1 0xC0 SHL PUSH2 0x1EED JUMP JUMPDEST PUSH1 0x0 DUP1 SHL DUP2 PUSH1 0x5 ADD SLOAD EQ PUSH2 0x1AD5 JUMPI PUSH1 0x40 MLOAD PUSH32 0x8C379A000000000000000000000000000000000000000000000000000000000 DUP2 MSTORE PUSH1 0x4 ADD PUSH2 0x1ACC SWAP1 PUSH2 0x2EA7 JUMP JUMPDEST PUSH1 0x40 MLOAD DUP1 SWAP2 SUB SWAP1 REVERT JUMPDEST PUSH2 0x1AE9 PUSH8 0x6D0FC077155081D7 PUSH1 0xC0 SHL PUSH2 0x1EED JUMP JUMPDEST PUSH2 0x1AFD PUSH8 0x1ED7CC108BF04750 PUSH1 0xC0 SHL PUSH2 0x1EED JUMP JUMPDEST PUSH2 0x1B11 PUSH8 0xD2F1A5C5BCAA1157 PUSH1 0xC0 SHL PUSH2 0x1EED JUMP JUMPDEST PUSH2 0x1B25 PUSH8 0x855AD3B666791289 PUSH1 0xC0 SHL PUSH2 0x1EED JUMP JUMPDEST DUP1 PUSH1 0x3 ADD SLOAD DUP3 GT ISZERO PUSH2 0x1B6C JUMPI PUSH1 0x40 MLOAD PUSH32 0x8C379A000000000000000000000000000000000000000000000000000000000 DUP2 MSTORE PUSH1 0x4 ADD PUSH2 0x1B63 SWAP1 PUSH2 0x2F13 JUMP JUMPDEST PUSH1 0x40 MLOAD DUP1 SWAP2 SUB SWAP1 REVERT JUMPDEST PUSH2 0x1B80 PUSH8 0xB1F00C49F1943E10 PUSH1 0xC0 SHL PUSH2 0x1EED JUMP JUMPDEST PUSH2 0x1B94 PUSH8 0xA20BC852EDE3160A PUSH1 0xC0 SHL PUSH2 0x1EED JUMP JUMPDEST PUSH2 0x1BA8 PUSH8 0x9D9132567014F732 PUSH1 0xC0 SHL PUSH2 0x1EED JUMP JUMPDEST PUSH2 0x1BBC PUSH8 0x9A93F03D46D329E9 PUSH1 0xC0 SHL PUSH2 0x1EED JUMP JUMPDEST PUSH1 0x0 DUP1 SHL DUP4 SUB PUSH2 0x1C01 JUMPI PUSH1 0x40 MLOAD PUSH32 0x8C379A000000000000000000000000000000000000000000000000000000000 DUP2 MSTORE PUSH1 0x4 ADD PUSH2 0x1BF8 SWAP1 PUSH2 0x2F7F JUMP JUMPDEST PUSH1 0x40 MLOAD DUP1 SWAP2 SUB SWAP1 REVERT JUMPDEST PUSH2 0x1C15 PUSH8 0x7B4B5FB6FDA7F27F PUSH1 0xC0 SHL PUSH2 0x1EED JUMP JUMPDEST PUSH2 0x1C29 PUSH8 0x55BBF0827CC3AC52 PUSH1 0xC0 SHL PUSH2 0x1EED JUMP JUMPDEST DUP3 DUP2 PUSH1 0x5 ADD DUP2 SWAP1 SSTORE POP PUSH2 0x1C46 PUSH8 0xC016D7F1952593C PUSH1 0xC0 SHL PUSH2 0x1EED JUMP JUMPDEST DUP2 DUP2 PUSH1 0x6 ADD DUP2 SWAP1 SSTORE POP PUSH2 0x1C63 PUSH8 0xADDF9673D8245717 PUSH1 0xC0 SHL PUSH2 0x1EED JUMP JUMPDEST PUSH1 0x0 DUP2 PUSH1 0x7 ADD PUSH1 0x0 PUSH2 0x100 EXP DUP2 SLOAD DUP2 PUSH1 0xFF MUL NOT AND SWAP1 DUP4 ISZERO ISZERO MUL OR SWAP1 SSTORE POP PUSH2 0x1C94 PUSH8 0xB9133B592E5B1949 PUSH1 0xC0 SHL PUSH2 0x1EED JUMP JUMPDEST PUSH2 0x1CA8 PUSH8 0xB443A2D1363A9602 PUSH1 0xC0 SHL PUSH2 0x1EED JUMP JUMPDEST DUP3 DUP5 PUSH32 0xAADC284D63EAAF8A809A1B43E533D2E81BE005F73D7E7CA39E5457844740463F DUP5 TIMESTAMP PUSH1 0x40 MLOAD PUSH2 0x1CDB SWAP3 SWAP2 SWAP1 PUSH2 0x2BF0 JUMP JUMPDEST PUSH1 0x40 MLOAD DUP1 SWAP2 SUB SWAP1 LOG3 POP POP POP POP JUMP JUMPDEST PUSH2 0x1CF1 PUSH2 0x1F9F JUMP JUMPDEST PUSH2 0x1D05 PUSH8 0x27F28E327917DEBF PUSH1 0xC0 SHL PUSH2 0x1EED JUMP JUMPDEST PUSH2 0x1D19 PUSH8 0x86A4DCCF621B5A2F PUSH1 0xC0 SHL PUSH2 0x1EED JUMP JUMPDEST PUSH2 0x1D2D PUSH8 0x52A8B6A85E9D3C88 PUSH1 0xC0 SHL PUSH2 0x1EED JUMP JUMPDEST PUSH2 0x1D41 PUSH8 0x5AB854EE4B670CD2 PUSH1 0xC0 SHL PUSH2 0x1EED JUMP JUMPDEST PUSH1 0x0 DUP3 GT DUP1 ISZERO PUSH2 0x1D53 JUMPI POP PUSH1 0x3 SLOAD DUP3 GT ISZERO JUMPDEST PUSH2 0x1D92 JUMPI PUSH1 0x40 MLOAD PUSH32 0x8C379A000000000000000000000000000000000000000000000000000000000 DUP2 MSTORE PUSH1 0x4 ADD PUSH2 0x1D89 SWAP1 PUSH2 0x2830 JUMP JUMPDEST PUSH1 0x40 MLOAD DUP1 SWAP2 SUB SWAP1 REVERT JUMPDEST PUSH2 0x1DA6 PUSH8 0x5A5093A25E0997FF PUSH1 0xC0 SHL PUSH2 0x1EED JUMP JUMPDEST PUSH2 0x1DBA PUSH8 0x3D828991A9051BF8 PUSH1 0xC0 SHL PUSH2 0x1EED JUMP JUMPDEST PUSH2 0x1DCE PUSH8 0xC656ADF8DB284730 PUSH1 0xC0 SHL PUSH2 0x1EED JUMP JUMPDEST PUSH1 0x2 PUSH1 0x0 DUP4 DUP2 MSTORE PUSH1 0x20 ADD SWAP1 DUP2 MSTORE PUSH1 0x20 ADD PUSH1 0x0 KECCAK256 PUSH1 0x40 MLOAD DUP1 PUSH2 0x100 ADD PUSH1 0x40 MSTORE SWAP1 DUP2 PUSH1 0x0 DUP3 ADD SLOAD DUP2 MSTORE PUSH1 0x20 ADD PUSH1 0x1 DUP3 ADD PUSH1 0x0 SWAP1 SLOAD SWAP1 PUSH2 0x100 EXP SWAP1 DIV PUSH20 0xFFFFFFFFFFFFFFFFFFFFFFFFFFFFFFFFFFFFFFFF AND PUSH20 0xFFFFFFFFFFFFFFFFFFFFFFFFFFFFFFFFFFFFFFFF AND PUSH20 0xFFFFFFFFFFFFFFFFFFFFFFFFFFFFFFFFFFFFFFFF AND DUP2 MSTORE PUSH1 0x20 ADD PUSH1 0x2 DUP3 ADD PUSH1 0x0 SWAP1 SLOAD SWAP1 PUSH2 0x100 EXP SWAP1 DIV PUSH20 0xFFFFFFFFFFFFFFFFFFFFFFFFFFFFFFFFFFFFFFFF AND PUSH20 0xFFFFFFFFFFFFFFFFFFFFFFFFFFFFFFFFFFFFFFFF AND PUSH20 0xFFFFFFFFFFFFFFFFFFFFFFFFFFFFFFFFFFFFFFFF AND DUP2 MSTORE PUSH1 0x20 ADD PUSH1 0x3 DUP3 ADD SLOAD DUP2 MSTORE PUSH1 0x20 ADD PUSH1 0x4 DUP3 ADD SLOAD DUP2 MSTORE PUSH1 0x20 ADD PUSH1 0x5 DUP3 ADD SLOAD DUP2 MSTORE PUSH1 0x20 ADD PUSH1 0x6 DUP3 ADD SLOAD DUP2 MSTORE PUSH1 0x20 ADD PUSH1 0x7 DUP3 ADD PUSH1 0x0 SWAP1 SLOAD SWAP1 PUSH2 0x100 EXP SWAP1 DIV PUSH1 0xFF AND ISZERO ISZERO ISZERO ISZERO DUP2 MSTORE POP POP SWAP1 POP SWAP2 SWAP1 POP JUMP JUMPDEST POP JUMP JUMPDEST PUSH1 0x0 DUP3 PUSH2 0x1EFD DUP6 DUP5 PUSH2 0x1F07 JUMP JUMPDEST EQ SWAP1 POP SWAP4 SWAP3 POP POP POP JUMP JUMPDEST PUSH1 0x0 DUP1 DUP3 SWAP1 POP PUSH1 0x0 JUMPDEST DUP5 MLOAD DUP2 LT ISZERO PUSH2 0x1F52 JUMPI PUSH2 0x1F3D DUP3 DUP7 DUP4 DUP2 MLOAD DUP2 LT PUSH2 0x1F30 JUMPI PUSH2 0x1F2F PUSH2 0x2F9F JUMP JUMPDEST JUMPDEST PUSH1 0x20 MUL PUSH1 0x20 ADD ADD MLOAD PUSH2 0x1F5D JUMP JUMPDEST SWAP2 POP DUP1 DUP1 PUSH2 0x1F4A SWAP1 PUSH2 0x270C JUMP JUMPDEST SWAP2 POP POP PUSH2 0x1F10 JUMP JUMPDEST POP DUP1 SWAP2 POP POP SWAP3 SWAP2 POP POP JUMP JUMPDEST PUSH1 0x0 DUP2 DUP4 LT PUSH2 0x1F75 JUMPI PUSH2 0x1F70 DUP3 DUP5 PUSH2 0x1F88 JUMP JUMPDEST PUSH2 0x1F80 JUMP JUMPDEST PUSH2 0x1F7F DUP4 DUP4 PUSH2 0x1F88 JUMP JUMPDEST JUMPDEST SWAP1 POP SWAP3 SWAP2 POP POP JUMP JUMPDEST PUSH1 0x0 DUP3 PUSH1 0x0 MSTORE DUP2 PUSH1 0x20 MSTORE PUSH1 0x40 PUSH1 0x0 KECCAK256 SWAP1 POP SWAP3 SWAP2 POP POP JUMP JUMPDEST PUSH1 0x40 MLOAD DUP1 PUSH2 0x100 ADD PUSH1 0x40 MSTORE DUP1 PUSH1 0x0 DUP2 MSTORE PUSH1 0x20 ADD PUSH1 0x0 PUSH20 0xFFFFFFFFFFFFFFFFFFFFFFFFFFFFFFFFFFFFFFFF AND DUP2 MSTORE PUSH1 0x20 ADD PUSH1 0x0 PUSH20 0xFFFFFFFFFFFFFFFFFFFFFFFFFFFFFFFFFFFFFFFF AND DUP2 MSTORE PUSH1 0x20 ADD PUSH1 0x0 DUP2 MSTORE PUSH1 0x20 ADD PUSH1 0x0 DUP2 MSTORE PUSH1 0x20 ADD PUSH1 0x0 DUP1 NOT AND DUP2 MSTORE PUSH1 0x20 ADD PUSH1 0x0 DUP2 MSTORE PUSH1 0x20 ADD PUSH1 0x0 ISZERO ISZERO DUP2 MSTORE POP SWAP1 JUMP JUMPDEST PUSH1 0x0 DUP1 REVERT JUMPDEST PUSH1 0x0 DUP1 REVERT JUMPDEST PUSH1 0x0 DUP2 SWAP1 POP SWAP2 SWAP1 POP JUMP JUMPDEST PUSH2 0x2032 DUP2 PUSH2 0x201F JUMP JUMPDEST DUP2 EQ PUSH2 0x203D JUMPI PUSH1 0x0 DUP1 REVERT JUMPDEST POP JUMP JUMPDEST PUSH1 0x0 DUP2 CALLDATALOAD SWAP1 POP PUSH2 0x204F DUP2 PUSH2 0x2029 JUMP JUMPDEST SWAP3 SWAP2 POP POP JUMP JUMPDEST PUSH1 0x0 PUSH1 0x20 DUP3 DUP5 SUB SLT ISZERO PUSH2 0x206B JUMPI PUSH2 0x206A PUSH2 0x2015 JUMP JUMPDEST JUMPDEST PUSH1 0x0 PUSH2 0x2079 DUP5 DUP3 DUP6 ADD PUSH2 0x2040 JUMP JUMPDEST SWAP2 POP POP SWAP3 SWAP2 POP POP JUMP JUMPDEST PUSH2 0x208B DUP2 PUSH2 0x201F JUMP JUMPDEST DUP3 MSTORE POP POP JUMP JUMPDEST PUSH1 0x0 PUSH20 0xFFFFFFFFFFFFFFFFFFFFFFFFFFFFFFFFFFFFFFFF DUP3 AND SWAP1 POP SWAP2 SWAP1 POP JUMP JUMPDEST PUSH1 0x0 PUSH2 0x20BC DUP3 PUSH2 0x2091 JUMP JUMPDEST SWAP1 POP SWAP2 SWAP1 POP JUMP JUMPDEST PUSH2 0x20CC DUP2 PUSH2 0x20B1 JUMP JUMPDEST DUP3 MSTORE POP POP JUMP JUMPDEST PUSH1 0x0 DUP2 SWAP1 POP SWAP2 SWAP1 POP JUMP JUMPDEST PUSH2 0x20E5 DUP2 PUSH2 0x20D2 JUMP JUMPDEST DUP3 MSTORE POP POP JUMP JUMPDEST PUSH1 0x0 DUP2 ISZERO ISZERO SWAP1 POP SWAP2 SWAP1 POP JUMP JUMPDEST PUSH2 0x2100 DUP2 PUSH2 0x20EB JUMP JUMPDEST DUP3 MSTORE POP POP JUMP JUMPDEST PUSH1 0x0 PUSH2 0x100 DUP3 ADD SWAP1 POP PUSH2 0x211C PUSH1 0x0 DUP4 ADD DUP12 PUSH2 0x2082 JUMP JUMPDEST PUSH2 0x2129 PUSH1 0x20 DUP4 ADD DUP11 PUSH2 0x20C3 JUMP JUMPDEST PUSH2 0x2136 PUSH1 0x40 DUP4 ADD DUP10 PUSH2 0x20C3 JUMP JUMPDEST PUSH2 0x2143 PUSH1 0x60 DUP4 ADD DUP9 PUSH2 0x2082 JUMP JUMPDEST PUSH2 0x2150 PUSH1 0x80 DUP4 ADD DUP8 PUSH2 0x2082 JUMP JUMPDEST PUSH2 0x215D PUSH1 0xA0 DUP4 ADD DUP7 PUSH2 0x20DC JUMP JUMPDEST PUSH2 0x216A PUSH1 0xC0 DUP4 ADD DUP6 PUSH2 0x2082 JUMP JUMPDEST PUSH2 0x2177 PUSH1 0xE0 DUP4 ADD DUP5 PUSH2 0x20F7 JUMP JUMPDEST SWAP10 SWAP9 POP POP POP POP POP POP POP POP POP JUMP JUMPDEST PUSH2 0x218D DUP2 PUSH2 0x20B1 JUMP JUMPDEST DUP2 EQ PUSH2 0x2198 JUMPI PUSH1 0x0 DUP1 REVERT JUMPDEST POP JUMP JUMPDEST PUSH1 0x0 DUP2 CALLDATALOAD SWAP1 POP PUSH2 0x21AA DUP2 PUSH2 0x2184 JUMP JUMPDEST SWAP3 SWAP2 POP POP JUMP JUMPDEST PUSH1 0x0 DUP1 PUSH1 0x0 PUSH1 0x60 DUP5 DUP7 SUB SLT ISZERO PUSH2 0x21C9 JUMPI PUSH2 0x21C8 PUSH2 0x2015 JUMP JUMPDEST JUMPDEST PUSH1 0x0 PUSH2 0x21D7 DUP7 DUP3 DUP8 ADD PUSH2 0x219B JUMP JUMPDEST SWAP4 POP POP PUSH1 0x20 PUSH2 0x21E8 DUP7 DUP3 DUP8 ADD PUSH2 0x2040 JUMP JUMPDEST SWAP3 POP POP PUSH1 0x40 PUSH2 0x21F9 DUP7 DUP3 DUP8 ADD PUSH2 0x2040 JUMP JUMPDEST SWAP2 POP POP SWAP3 POP SWAP3 POP SWAP3 JUMP JUMPDEST PUSH1 0x0 PUSH2 0x140 DUP3 ADD SWAP1 POP PUSH2 0x2219 PUSH1 0x0 DUP4 ADD DUP14 PUSH2 0x2082 JUMP JUMPDEST PUSH2 0x2226 PUSH1 0x20 DUP4 ADD DUP13 PUSH2 0x20C3 JUMP JUMPDEST PUSH2 0x2233 PUSH1 0x40 DUP4 ADD DUP12 PUSH2 0x20C3 JUMP JUMPDEST PUSH2 0x2240 PUSH1 0x60 DUP4 ADD DUP11 PUSH2 0x2082 JUMP JUMPDEST PUSH2 0x224D PUSH1 0x80 DUP4 ADD DUP10 PUSH2 0x2082 JUMP JUMPDEST PUSH2 0x225A PUSH1 0xA0 DUP4 ADD DUP9 PUSH2 0x20DC JUMP JUMPDEST PUSH2 0x2267 PUSH1 0xC0 DUP4 ADD DUP8 PUSH2 0x2082 JUMP JUMPDEST PUSH2 0x2274 PUSH1 0xE0 DUP4 ADD DUP7 PUSH2 0x20F7 JUMP JUMPDEST PUSH2 0x2282 PUSH2 0x100 DUP4 ADD DUP6 PUSH2 0x20F7 JUMP JUMPDEST PUSH2 0x2290 PUSH2 0x120 DUP4 ADD DUP5 PUSH2 0x20F7 JUMP JUMPDEST SWAP12 SWAP11 POP POP POP POP POP POP POP POP POP POP POP JUMP JUMPDEST PUSH1 0x0 PUSH1 0x80 DUP3 ADD SWAP1 POP PUSH2 0x22B4 PUSH1 0x0 DUP4 ADD DUP8 PUSH2 0x20F7 JUMP JUMPDEST PUSH2 0x22C1 PUSH1 0x20 DUP4 ADD DUP7 PUSH2 0x20F7 JUMP JUMPDEST PUSH2 0x22CE PUSH1 0x40 DUP4 ADD DUP6 PUSH2 0x20F7 JUMP JUMPDEST PUSH2 0x22DB PUSH1 0x60 DUP4 ADD DUP5 PUSH2 0x2082 JUMP JUMPDEST SWAP6 SWAP5 POP POP POP POP POP JUMP JUMPDEST PUSH1 0x0 PUSH1 0x20 DUP3 ADD SWAP1 POP PUSH2 0x22F9 PUSH1 0x0 DUP4 ADD DUP5 PUSH2 0x2082 JUMP JUMPDEST SWAP3 SWAP2 POP POP JUMP JUMPDEST PUSH1 0x0 PUSH1 0x20 DUP3 DUP5 SUB SLT ISZERO PUSH2 0x2315 JUMPI PUSH2 0x2314 PUSH2 0x2015 JUMP JUMPDEST JUMPDEST PUSH1 0x0 PUSH2 0x2323 DUP5 DUP3 DUP6 ADD PUSH2 0x219B JUMP JUMPDEST SWAP2 POP POP SWAP3 SWAP2 POP POP JUMP JUMPDEST PUSH1 0x0 PUSH1 0x20 DUP3 ADD SWAP1 POP PUSH2 0x2341 PUSH1 0x0 DUP4 ADD DUP5 PUSH2 0x20C3 JUMP JUMPDEST SWAP3 SWAP2 POP POP JUMP JUMPDEST PUSH1 0x0 DUP1 PUSH1 0x40 DUP4 DUP6 SUB SLT ISZERO PUSH2 0x235E JUMPI PUSH2 0x235D PUSH2 0x2015 JUMP JUMPDEST JUMPDEST PUSH1 0x0 PUSH2 0x236C DUP6 DUP3 DUP7 ADD PUSH2 0x2040 JUMP JUMPDEST SWAP3 POP POP PUSH1 0x20 PUSH2 0x237D DUP6 DUP3 DUP7 ADD PUSH2 0x219B JUMP JUMPDEST SWAP2 POP POP SWAP3 POP SWAP3 SWAP1 POP JUMP JUMPDEST PUSH1 0x0 PUSH1 0x20 DUP3 ADD SWAP1 POP PUSH2 0x239C PUSH1 0x0 DUP4 ADD DUP5 PUSH2 0x20F7 JUMP JUMPDEST SWAP3 SWAP2 POP POP JUMP JUMPDEST PUSH1 0x0 DUP1 REVERT JUMPDEST PUSH1 0x0 DUP1 REVERT JUMPDEST PUSH1 0x0 DUP1 REVERT JUMPDEST PUSH1 0x0 DUP1 DUP4 PUSH1 0x1F DUP5 ADD SLT PUSH2 0x23C7 JUMPI PUSH2 0x23C6 PUSH2 0x23A2 JUMP JUMPDEST JUMPDEST DUP3 CALLDATALOAD SWAP1 POP PUSH8 0xFFFFFFFFFFFFFFFF DUP2 GT ISZERO PUSH2 0x23E4 JUMPI PUSH2 0x23E3 PUSH2 0x23A7 JUMP JUMPDEST JUMPDEST PUSH1 0x20 DUP4 ADD SWAP2 POP DUP4 PUSH1 0x20 DUP3 MUL DUP4 ADD GT ISZERO PUSH2 0x2400 JUMPI PUSH2 0x23FF PUSH2 0x23AC JUMP JUMPDEST JUMPDEST SWAP3 POP SWAP3 SWAP1 POP JUMP JUMPDEST PUSH1 0x0 DUP1 PUSH1 0x0 DUP1 PUSH1 0x60 DUP6 DUP8 SUB SLT ISZERO PUSH2 0x2421 JUMPI PUSH2 0x2420 PUSH2 0x2015 JUMP JUMPDEST JUMPDEST PUSH1 0x0 PUSH2 0x242F DUP8 DUP3 DUP9 ADD PUSH2 0x2040 JUMP JUMPDEST SWAP5 POP POP PUSH1 0x20 PUSH2 0x2440 DUP8 DUP3 DUP9 ADD PUSH2 0x2040 JUMP JUMPDEST SWAP4 POP POP PUSH1 0x40 DUP6 ADD CALLDATALOAD PUSH8 0xFFFFFFFFFFFFFFFF DUP2 GT ISZERO PUSH2 0x2461 JUMPI PUSH2 0x2460 PUSH2 0x201A JUMP JUMPDEST JUMPDEST PUSH2 0x246D DUP8 DUP3 DUP9 ADD PUSH2 0x23B1 JUMP JUMPDEST SWAP3 POP SWAP3 POP POP SWAP3 SWAP6 SWAP2 SWAP5 POP SWAP3 POP JUMP JUMPDEST PUSH2 0x2484 DUP2 PUSH2 0x20D2 JUMP JUMPDEST DUP2 EQ PUSH2 0x248F JUMPI PUSH1 0x0 DUP1 REVERT JUMPDEST POP JUMP JUMPDEST PUSH1 0x0 DUP2 CALLDATALOAD SWAP1 POP PUSH2 0x24A1 DUP2 PUSH2 0x247B JUMP JUMPDEST SWAP3 SWAP2 POP POP JUMP JUMPDEST PUSH1 0x0 DUP1 PUSH1 0x0 PUSH1 0x60 DUP5 DUP7 SUB SLT ISZERO PUSH2 0x24C0 JUMPI PUSH2 0x24BF PUSH2 0x2015 JUMP JUMPDEST JUMPDEST PUSH1 0x0 PUSH2 0x24CE DUP7 DUP3 DUP8 ADD PUSH2 0x2040 JUMP JUMPDEST SWAP4 POP POP PUSH1 0x20 PUSH2 0x24DF DUP7 DUP3 DUP8 ADD PUSH2 0x2492 JUMP JUMPDEST SWAP3 POP POP PUSH1 0x40 PUSH2 0x24F0 DUP7 DUP3 DUP8 ADD PUSH2 0x2040 JUMP JUMPDEST SWAP2 POP POP SWAP3 POP SWAP3 POP SWAP3 JUMP JUMPDEST PUSH2 0x2503 DUP2 PUSH2 0x201F JUMP JUMPDEST DUP3 MSTORE POP POP JUMP JUMPDEST PUSH2 0x2512 DUP2 PUSH2 0x20B1 JUMP JUMPDEST DUP3 MSTORE POP POP JUMP JUMPDEST PUSH2 0x2521 DUP2 PUSH2 0x20D2 JUMP JUMPDEST DUP3 MSTORE POP POP JUMP JUMPDEST PUSH2 0x2530 DUP2 PUSH2 0x20EB JUMP JUMPDEST DUP3 MSTORE POP POP JUMP JUMPDEST PUSH2 0x100 DUP3 ADD PUSH1 0x0 DUP3 ADD MLOAD PUSH2 0x254D PUSH1 0x0 DUP6 ADD DUP3 PUSH2 0x24FA JUMP JUMPDEST POP PUSH1 0x20 DUP3 ADD MLOAD PUSH2 0x2560 PUSH1 0x20 DUP6 ADD DUP3 PUSH2 0x2509 JUMP JUMPDEST POP PUSH1 0x40 DUP3 ADD MLOAD PUSH2 0x2573 PUSH1 0x40 DUP6 ADD DUP3 PUSH2 0x2509 JUMP JUMPDEST POP PUSH1 0x60 DUP3 ADD MLOAD PUSH2 0x2586 PUSH1 0x60 DUP6 ADD DUP3 PUSH2 0x24FA JUMP JUMPDEST POP PUSH1 0x80 DUP3 ADD MLOAD PUSH2 0x2599 PUSH1 0x80 DUP6 ADD DUP3 PUSH2 0x24FA JUMP JUMPDEST POP PUSH1 0xA0 DUP3 ADD MLOAD PUSH2 0x25AC PUSH1 0xA0 DUP6 ADD DUP3 PUSH2 0x2518 JUMP JUMPDEST POP PUSH1 0xC0 DUP3 ADD MLOAD PUSH2 0x25BF PUSH1 0xC0 DUP6 ADD DUP3 PUSH2 0x24FA JUMP JUMPDEST POP PUSH1 0xE0 DUP3 ADD MLOAD PUSH2 0x25D2 PUSH1 0xE0 DUP6 ADD DUP3 PUSH2 0x2527 JUMP JUMPDEST POP POP POP POP JUMP JUMPDEST PUSH1 0x0 PUSH2 0x100 DUP3 ADD SWAP1 POP PUSH2 0x25EE PUSH1 0x0 DUP4 ADD DUP5 PUSH2 0x2536 JUMP JUMPDEST SWAP3 SWAP2 POP POP JUMP JUMPDEST PUSH1 0x0 DUP3 DUP3 MSTORE PUSH1 0x20 DUP3 ADD SWAP1 POP SWAP3 SWAP2 POP POP JUMP JUMPDEST PUSH32 0x456E642074696D65206D75737420626520696E20746865206675747572650000 PUSH1 0x0 DUP3 ADD MSTORE POP JUMP JUMPDEST PUSH1 0x0 PUSH2 0x263B PUSH1 0x1E DUP4 PUSH2 0x25F4 JUMP JUMPDEST SWAP2 POP PUSH2 0x2646 DUP3 PUSH2 0x2605 JUMP JUMPDEST PUSH1 0x20 DUP3 ADD SWAP1 POP SWAP2 SWAP1 POP JUMP JUMPDEST PUSH1 0x0 PUSH1 0x20 DUP3 ADD SWAP1 POP DUP2 DUP2 SUB PUSH1 0x0 DUP4 ADD MSTORE PUSH2 0x266A DUP2 PUSH2 0x262E JUMP JUMPDEST SWAP1 POP SWAP2 SWAP1 POP JUMP JUMPDEST PUSH32 0x427564676574206D7573742062652067726561746572207468616E207A65726F PUSH1 0x0 DUP3 ADD MSTORE POP JUMP JUMPDEST PUSH1 0x0 PUSH2 0x26A7 PUSH1 0x20 DUP4 PUSH2 0x25F4 JUMP JUMPDEST SWAP2 POP PUSH2 0x26B2 DUP3 PUSH2 0x2671 JUMP JUMPDEST PUSH1 0x20 DUP3 ADD SWAP1 POP SWAP2 SWAP1 POP JUMP JUMPDEST PUSH1 0x0 PUSH1 0x20 DUP3 ADD SWAP1 POP DUP2 DUP2 SUB PUSH1 0x0 DUP4 ADD MSTORE PUSH2 0x26D6 DUP2 PUSH2 0x269A JUMP JUMPDEST SWAP1 POP SWAP2 SWAP1 POP JUMP JUMPDEST PUSH32 0x4E487B7100000000000000000000000000000000000000000000000000000000 PUSH1 0x0 MSTORE PUSH1 0x11 PUSH1 0x4 MSTORE PUSH1 0x24 PUSH1 0x0 REVERT JUMPDEST PUSH1 0x0 PUSH2 0x2717 DUP3 PUSH2 0x201F JUMP JUMPDEST SWAP2 POP PUSH32 0xFFFFFFFFFFFFFFFFFFFFFFFFFFFFFFFFFFFFFFFFFFFFFFFFFFFFFFFFFFFFFFFF DUP3 SUB PUSH2 0x2749 JUMPI PUSH2 0x2748 PUSH2 0x26DD JUMP JUMPDEST JUMPDEST PUSH1 0x1 DUP3 ADD SWAP1 POP SWAP2 SWAP1 POP JUMP JUMPDEST PUSH1 0x0 PUSH1 0x60 DUP3 ADD SWAP1 POP PUSH2 0x2769 PUSH1 0x0 DUP4 ADD DUP7 PUSH2 0x20C3 JUMP JUMPDEST PUSH2 0x2776 PUSH1 0x20 DUP4 ADD DUP6 PUSH2 0x20C3 JUMP JUMPDEST PUSH2 0x2783 PUSH1 0x40 DUP4 ADD DUP5 PUSH2 0x2082 JUMP JUMPDEST SWAP5 SWAP4 POP POP POP POP JUMP JUMPDEST PUSH2 0x2794 DUP2 PUSH2 0x20EB JUMP JUMPDEST DUP2 EQ PUSH2 0x279F JUMPI PUSH1 0x0 DUP1 REVERT JUMPDEST POP JUMP JUMPDEST PUSH1 0x0 DUP2 MLOAD SWAP1 POP PUSH2 0x27B1 DUP2 PUSH2 0x278B JUMP JUMPDEST SWAP3 SWAP2 POP POP JUMP JUMPDEST PUSH1 0x0 PUSH1 0x20 DUP3 DUP5 SUB SLT ISZERO PUSH2 0x27CD JUMPI PUSH2 0x27CC PUSH2 0x2015 JUMP JUMPDEST JUMPDEST PUSH1 0x0 PUSH2 0x27DB DUP5 DUP3 DUP6 ADD PUSH2 0x27A2 JUMP JUMPDEST SWAP2 POP POP SWAP3 SWAP2 POP POP JUMP JUMPDEST PUSH32 0x43616D706169676E20646F6573206E6F74206578697374000000000000000000 PUSH1 0x0 DUP3 ADD MSTORE POP JUMP JUMPDEST PUSH1 0x0 PUSH2 0x281A PUSH1 0x17 DUP4 PUSH2 0x25F4 JUMP JUMPDEST SWAP2 POP PUSH2 0x2825 DUP3 PUSH2 0x27E4 JUMP JUMPDEST PUSH1 0x20 DUP3 ADD SWAP1 POP SWAP2 SWAP1 POP JUMP JUMPDEST PUSH1 0x0 PUSH1 0x20 DUP3 ADD SWAP1 POP DUP2 DUP2 SUB PUSH1 0x0 DUP4 ADD MSTORE PUSH2 0x2849 DUP2 PUSH2 0x280D JUMP JUMPDEST SWAP1 POP SWAP2 SWAP1 POP JUMP JUMPDEST PUSH1 0x0 PUSH2 0x285B DUP3 PUSH2 0x201F JUMP JUMPDEST SWAP2 POP PUSH2 0x2866 DUP4 PUSH2 0x201F JUMP JUMPDEST SWAP3 POP DUP3 DUP3 SUB SWAP1 POP DUP2 DUP2 GT ISZERO PUSH2 0x287E JUMPI PUSH2 0x287D PUSH2 0x26DD JUMP JUMPDEST JUMPDEST SWAP3 SWAP2 POP POP JUMP JUMPDEST PUSH32 0x4F6E6C79206F776E65722063616E2063616C6C20746869732066756E6374696F PUSH1 0x0 DUP3 ADD MSTORE PUSH32 0x6E00000000000000000000000000000000000000000000000000000000000000 PUSH1 0x20 DUP3 ADD MSTORE POP JUMP JUMPDEST PUSH1 0x0 PUSH2 0x28E0 PUSH1 0x21 DUP4 PUSH2 0x25F4 JUMP JUMPDEST SWAP2 POP PUSH2 0x28EB DUP3 PUSH2 0x2884 JUMP JUMPDEST PUSH1 0x40 DUP3 ADD SWAP1 POP SWAP2 SWAP1 POP JUMP JUMPDEST PUSH1 0x0 PUSH1 0x20 DUP3 ADD SWAP1 POP DUP2 DUP2 SUB PUSH1 0x0 DUP4 ADD MSTORE PUSH2 0x290F DUP2 PUSH2 0x28D3 JUMP JUMPDEST SWAP1 POP SWAP2 SWAP1 POP JUMP JUMPDEST PUSH32 0x4F7261636C652063616E6E6F74206265207A65726F2061646472657373000000 PUSH1 0x0 DUP3 ADD MSTORE POP JUMP JUMPDEST PUSH1 0x0 PUSH2 0x294C PUSH1 0x1D DUP4 PUSH2 0x25F4 JUMP JUMPDEST SWAP2 POP PUSH2 0x2957 DUP3 PUSH2 0x2916 JUMP JUMPDEST PUSH1 0x20 DUP3 ADD SWAP1 POP SWAP2 SWAP1 POP JUMP JUMPDEST PUSH1 0x0 PUSH1 0x20 DUP3 ADD SWAP1 POP DUP2 DUP2 SUB PUSH1 0x0 DUP4 ADD MSTORE PUSH2 0x297B DUP2 PUSH2 0x293F JUMP JUMPDEST SWAP1 POP SWAP2 SWAP1 POP JUMP JUMPDEST PUSH32 0x526573756C7473206E6F74207075626C69736865642079657400000000000000 PUSH1 0x0 DUP3 ADD MSTORE POP JUMP JUMPDEST PUSH1 0x0 PUSH2 0x29B8 PUSH1 0x19 DUP4 PUSH2 0x25F4 JUMP JUMPDEST SWAP2 POP PUSH2 0x29C3 DUP3 PUSH2 0x2982 JUMP JUMPDEST PUSH1 0x20 DUP3 ADD SWAP1 POP SWAP2 SWAP1 POP JUMP JUMPDEST PUSH1 0x0 PUSH1 0x20 DUP3 ADD SWAP1 POP DUP2 DUP2 SUB PUSH1 0x0 DUP4 ADD MSTORE PUSH2 0x29E7 DUP2 PUSH2 0x29AB JUMP JUMPDEST SWAP1 POP SWAP2 SWAP1 POP JUMP JUMPDEST PUSH32 0x52657761726420616C726561647920636C61696D656400000000000000000000 PUSH1 0x0 DUP3 ADD MSTORE POP JUMP JUMPDEST PUSH1 0x0 PUSH2 0x2A24 PUSH1 0x16 DUP4 PUSH2 0x25F4 JUMP JUMPDEST SWAP2 POP PUSH2 0x2A2F DUP3 PUSH2 0x29EE JUMP JUMPDEST PUSH1 0x20 DUP3 ADD SWAP1 POP SWAP2 SWAP1 POP JUMP JUMPDEST PUSH1 0x0 PUSH1 0x20 DUP3 ADD SWAP1 POP DUP2 DUP2 SUB PUSH1 0x0 DUP4 ADD MSTORE PUSH2 0x2A53 DUP2 PUSH2 0x2A17 JUMP JUMPDEST SWAP1 POP SWAP2 SWAP1 POP JUMP JUMPDEST PUSH32 0x416D6F756E74206D7573742062652067726561746572207468616E207A65726F PUSH1 0x0 DUP3 ADD MSTORE POP JUMP JUMPDEST PUSH1 0x0 PUSH2 0x2A90 PUSH1 0x20 DUP4 PUSH2 0x25F4 JUMP JUMPDEST SWAP2 POP PUSH2 0x2A9B DUP3 PUSH2 0x2A5A JUMP JUMPDEST PUSH1 0x20 DUP3 ADD SWAP1 POP SWAP2 SWAP1 POP JUMP JUMPDEST PUSH1 0x0 PUSH1 0x20 DUP3 ADD SWAP1 POP DUP2 DUP2 SUB PUSH1 0x0 DUP4 ADD MSTORE PUSH2 0x2ABF DUP2 PUSH2 0x2A83 JUMP JUMPDEST SWAP1 POP SWAP2 SWAP1 POP JUMP JUMPDEST PUSH1 0x0 DUP2 PUSH1 0x60 SHL SWAP1 POP SWAP2 SWAP1 POP JUMP JUMPDEST PUSH1 0x0 PUSH2 0x2ADE DUP3 PUSH2 0x2AC6 JUMP JUMPDEST SWAP1 POP SWAP2 SWAP1 POP JUMP JUMPDEST PUSH1 0x0 PUSH2 0x2AF0 DUP3 PUSH2 0x2AD3 JUMP JUMPDEST SWAP1 POP SWAP2 SWAP1 POP JUMP JUMPDEST PUSH2 0x2B08 PUSH2 0x2B03 DUP3 PUSH2 0x20B1 JUMP JUMPDEST PUSH2 0x2AE5 JUMP JUMPDEST DUP3 MSTORE POP POP JUMP JUMPDEST PUSH1 0x0 DUP2 SWAP1 POP SWAP2 SWAP1 POP JUMP JUMPDEST PUSH2 0x2B29 PUSH2 0x2B24 DUP3 PUSH2 0x201F JUMP JUMPDEST PUSH2 0x2B0E JUMP JUMPDEST DUP3 MSTORE POP POP JUMP JUMPDEST PUSH1 0x0 PUSH2 0x2B3B DUP3 DUP6 PUSH2 0x2AF7 JUMP JUMPDEST PUSH1 0x14 DUP3 ADD SWAP2 POP PUSH2 0x2B4B DUP3 DUP5 PUSH2 0x2B18 JUMP JUMPDEST PUSH1 0x20 DUP3 ADD SWAP2 POP DUP2 SWAP1 POP SWAP4 SWAP3 POP POP POP JUMP JUMPDEST PUSH32 0x496E76616C6964204D65726B6C652070726F6F66000000000000000000000000 PUSH1 0x0 DUP3 ADD MSTORE POP JUMP JUMPDEST PUSH1 0x0 PUSH2 0x2B91 PUSH1 0x14 DUP4 PUSH2 0x25F4 JUMP JUMPDEST SWAP2 POP PUSH2 0x2B9C DUP3 PUSH2 0x2B5B JUMP JUMPDEST PUSH1 0x20 DUP3 ADD SWAP1 POP SWAP2 SWAP1 POP JUMP JUMPDEST PUSH1 0x0 PUSH1 0x20 DUP3 ADD SWAP1 POP DUP2 DUP2 SUB PUSH1 0x0 DUP4 ADD MSTORE PUSH2 0x2BC0 DUP2 PUSH2 0x2B84 JUMP JUMPDEST SWAP1 POP SWAP2 SWAP1 POP JUMP JUMPDEST PUSH1 0x0 PUSH1 0x40 DUP3 ADD SWAP1 POP PUSH2 0x2BDC PUSH1 0x0 DUP4 ADD DUP6 PUSH2 0x20C3 JUMP JUMPDEST PUSH2 0x2BE9 PUSH1 0x20 DUP4 ADD DUP5 PUSH2 0x2082 JUMP JUMPDEST SWAP4 SWAP3 POP POP POP JUMP JUMPDEST PUSH1 0x0 PUSH1 0x40 DUP3 ADD SWAP1 POP PUSH2 0x2C05 PUSH1 0x0 DUP4 ADD DUP6 PUSH2 0x2082 JUMP JUMPDEST PUSH2 0x2C12 PUSH1 0x20 DUP4 ADD DUP5 PUSH2 0x2082 JUMP JUMPDEST SWAP4 SWAP3 POP POP POP JUMP JUMPDEST PUSH32 0x43616D706169676E20697320616C726561647920636C6F736564000000000000 PUSH1 0x0 DUP3 ADD MSTORE POP JUMP JUMPDEST PUSH1 0x0 PUSH2 0x2C4F PUSH1 0x1A DUP4 PUSH2 0x25F4 JUMP JUMPDEST SWAP2 POP PUSH2 0x2C5A DUP3 PUSH2 0x2C19 JUMP JUMPDEST PUSH1 0x20 DUP3 ADD SWAP1 POP SWAP2 SWAP1 POP JUMP JUMPDEST PUSH1 0x0 PUSH1 0x20 DUP3 ADD SWAP1 POP DUP2 DUP2 SUB PUSH1 0x0 DUP4 ADD MSTORE PUSH2 0x2C7E DUP2 PUSH2 0x2C42 JUMP JUMPDEST SWAP1 POP SWAP2 SWAP1 POP JUMP JUMPDEST PUSH32 0x4F6E6C792063616D706169676E2063726561746F722063616E20636C6F736500 PUSH1 0x0 DUP3 ADD MSTORE POP JUMP JUMPDEST PUSH1 0x0 PUSH2 0x2CBB PUSH1 0x1F DUP4 PUSH2 0x25F4 JUMP JUMPDEST SWAP2 POP PUSH2 0x2CC6 DUP3 PUSH2 0x2C85 JUMP JUMPDEST PUSH1 0x20 DUP3 ADD SWAP1 POP SWAP2 SWAP1 POP JUMP JUMPDEST PUSH1 0x0 PUSH1 0x20 DUP3 ADD SWAP1 POP DUP2 DUP2 SUB PUSH1 0x0 DUP4 ADD MSTORE PUSH2 0x2CEA DUP2 PUSH2 0x2CAE JUMP JUMPDEST SWAP1 POP SWAP2 SWAP1 POP JUMP JUMPDEST PUSH32 0x4F6E6C79206F7261636C652063616E2063616C6C20746869732066756E637469 PUSH1 0x0 DUP3 ADD MSTORE PUSH32 0x6F6E000000000000000000000000000000000000000000000000000000000000 PUSH1 0x20 DUP3 ADD MSTORE POP JUMP JUMPDEST PUSH1 0x0 PUSH2 0x2D4D PUSH1 0x22 DUP4 PUSH2 0x25F4 JUMP JUMPDEST SWAP2 POP PUSH2 0x2D58 DUP3 PUSH2 0x2CF1 JUMP JUMPDEST PUSH1 0x40 DUP3 ADD SWAP1 POP SWAP2 SWAP1 POP JUMP JUMPDEST PUSH1 0x0 PUSH1 0x20 DUP3 ADD SWAP1 POP DUP2 DUP2 SUB PUSH1 0x0 DUP4 ADD MSTORE PUSH2 0x2D7C DUP2 PUSH2 0x2D40 JUMP JUMPDEST SWAP1 POP SWAP2 SWAP1 POP JUMP JUMPDEST PUSH32 0x43616D706169676E206973206E6F742061637469766500000000000000000000 PUSH1 0x0 DUP3 ADD MSTORE POP JUMP JUMPDEST PUSH1 0x0 PUSH2 0x2DB9 PUSH1 0x16 DUP4 PUSH2 0x25F4 JUMP JUMPDEST SWAP2 POP PUSH2 0x2DC4 DUP3 PUSH2 0x2D83 JUMP JUMPDEST PUSH1 0x20 DUP3 ADD SWAP1 POP SWAP2 SWAP1 POP JUMP JUMPDEST PUSH1 0x0 PUSH1 0x20 DUP3 ADD SWAP1 POP DUP2 DUP2 SUB PUSH1 0x0 DUP4 ADD MSTORE PUSH2 0x2DE8 DUP2 PUSH2 0x2DAC JUMP JUMPDEST SWAP1 POP SWAP2 SWAP1 POP JUMP JUMPDEST PUSH32 0x43616D706169676E20686173206E6F7420656E64656420796574000000000000 PUSH1 0x0 DUP3 ADD MSTORE POP JUMP JUMPDEST PUSH1 0x0 PUSH2 0x2E25 PUSH1 0x1A DUP4 PUSH2 0x25F4 JUMP JUMPDEST SWAP2 POP PUSH2 0x2E30 DUP3 PUSH2 0x2DEF JUMP JUMPDEST PUSH1 0x20 DUP3 ADD SWAP1 POP SWAP2 SWAP1 POP JUMP JUMPDEST PUSH1 0x0 PUSH1 0x20 DUP3 ADD SWAP1 POP DUP2 DUP2 SUB PUSH1 0x0 DUP4 ADD MSTORE PUSH2 0x2E54 DUP2 PUSH2 0x2E18 JUMP JUMPDEST SWAP1 POP SWAP2 SWAP1 POP JUMP JUMPDEST PUSH32 0x526573756C747320616C7265616479207075626C697368656400000000000000 PUSH1 0x0 DUP3 ADD MSTORE POP JUMP JUMPDEST PUSH1 0x0 PUSH2 0x2E91 PUSH1 0x19 DUP4 PUSH2 0x25F4 JUMP JUMPDEST SWAP2 POP PUSH2 0x2E9C DUP3 PUSH2 0x2E5B JUMP JUMPDEST PUSH1 0x20 DUP3 ADD SWAP1 POP SWAP2 SWAP1 POP JUMP JUMPDEST PUSH1 0x0 PUSH1 0x20 DUP3 ADD SWAP1 POP DUP2 DUP2 SUB PUSH1 0x0 DUP4 ADD MSTORE PUSH2 0x2EC0 DUP2 PUSH2 0x2E84 JUMP JUMPDEST SWAP1 POP SWAP2 SWAP1 POP JUMP JUMPDEST PUSH32 0x416C6C6F636174656420616D6F756E7420657863656564732062756467657400 PUSH1 0x0 DUP3 ADD MSTORE POP JUMP JUMPDEST PUSH1 0x0 PUSH2 0x2EFD PUSH1 0x1F DUP4 PUSH2 0x25F4 JUMP JUMPDEST SWAP2 POP PUSH2 0x2F08 DUP3 PUSH2 0x2EC7 JUMP JUMPDEST PUSH1 0x20 DUP3 ADD SWAP1 POP SWAP2 SWAP1 POP JUMP JUMPDEST PUSH1 0x0 PUSH1 0x20 DUP3 ADD SWAP1 POP DUP2 DUP2 SUB PUSH1 0x0 DUP4 ADD MSTORE PUSH2 0x2F2C DUP2 PUSH2 0x2EF0 JUMP JUMPDEST SWAP1 POP SWAP2 SWAP1 POP JUMP JUMPDEST PUSH32 0x4D65726B6C6520726F6F742063616E6E6F7420626520656D7074790000000000 PUSH1 0x0 DUP3 ADD MSTORE POP JUMP JUMPDEST PUSH1 0x0 PUSH2 0x2F69 PUSH1 0x1B DUP4 PUSH2 0x25F4 JUMP JUMPDEST SWAP2 POP PUSH2 0x2F74 DUP3 PUSH2 0x2F33 JUMP JUMPDEST PUSH1 0x20 DUP3 ADD SWAP1 POP SWAP2 SWAP1 POP JUMP JUMPDEST PUSH1 0x0 PUSH1 0x20 DUP3 ADD SWAP1 POP DUP2 DUP2 SUB PUSH1 0x0 DUP4 ADD MSTORE PUSH2 0x2F98 DUP2 PUSH2 0x2F5C JUMP JUMPDEST SWAP1 POP SWAP2 SWAP1 POP JUMP JUMPDEST PUSH32 0x4E487B7100000000000000000000000000000000000000000000000000000000 PUSH1 0x0 MSTORE PUSH1 0x32 PUSH1 0x4 MSTORE PUSH1 0x24 PUSH1 0x0 REVERT INVALID LOG2 PUSH5 0x6970667358 0x22 SLT KECCAK256 PUSH10 0xD9F9C20131C3B7CFEB11 RETURN 0xBF SLT 0xBE PUSH19 0x7FF54BB1C6F568C65BBBF216D106A16F64736F PUSH13 0x63430008130033000000000000 "},"methodIdentifiers":{"campaignCount()":"7274e30d","campaigns(uint256)":"141961bc","claimReward(uint256,uint256,bytes32[])":"9821f5f2","closeCampaign(uint256)":"b0e1c1e1","createCampaign(address,uint256,uint256)":"461b6004","getCampaign(uint256)":"5598f8cc","getCampaignStatus(uint256)":"6c19e004","getCampaignStruct(uint256)":"fcc02759","hasClaimed(uint256,address)":"873f6f9e","oracle()":"7dc0d1d0","owner()":"8da5cb5b","publishResults(uint256,bytes32,uint256)":"e2020167","setOracle(address)":"7adbf973"}}}}}