{
  "_format": "hh-sol-artifact-1",
  "contractName": "Galxe",
  "sourceName": "contracts/_Galxe.sol",
  "abi": [
    {
      "inputs": [],
      "stateMutability": "nonpayable",
      "type": "constructor"
    },
    {
      "anonymous": false,
      "inputs": [
        {
          "indexed": true,
          "internalType": "uint256",
          "name": "campaignId",
          "type": "uint256"
        },
        {
          "indexed": true,
          "internalType": "address",
          "name": "brand",
          "type": "address"
        },
        {
          "indexed": false,
          "internalType": "uint256",
          "name": "timestamp",
          "type": "uint256"
        }
      ],
      "name": "CampaignClosed",
      "type": "event"
    },
    {
      "anonymous": false,
      "inputs": [
        {
          "indexed": true,
          "internalType": "uint256",
          "name": "campaignId",
          "type": "uint256"
        },
        {
          "indexed": true,
          "internalType": "bytes32",
          "name": "merkleRoot",
          "type": "bytes32"
        },
        {
          "indexed": false,
          "internalType": "uint256",
          "name": "totalAllocated",
          "type": "uint256"
        },
        {
          "indexed": false,
          "internalType": "uint256",
          "name": "timestamp",
          "type": "uint256"
        }
      ],
      "name": "ResultsPublished",
      "type": "event"
    },
    {
      "anonymous": false,
      "inputs": [
        {
          "indexed": true,
          "internalType": "uint256",
          "name": "campaignId",
          "type": "uint256"
        },
        {
          "indexed": true,
          "internalType": "address",
          "name": "user",
          "type": "address"
        },
        {
          "indexed": false,
          "internalType": "uint256",
          "name": "amount",
          "type": "uint256"
        },
        {
          "indexed": false,
          "internalType": "uint256",
          "name": "timestamp",
          "type": "uint256"
        }
      ],
      "name": "RewardClaimed",
      "type": "event"
    },
    {
      "inputs": [],
      "name": "campaignCount",
      "outputs": [
        {
          "internalType": "uint256",
          "name": "",
          "type": "uint256"
        }
      ],
      "stateMutability": "view",
      "type": "function"
    },
    {
      "inputs": [
        {
          "internalType": "uint256",
          "name": "",
          "type": "uint256"
        }
      ],
      "name": "campaigns",
      "outputs": [
        {
          "internalType": "uint256",
          "name": "id",
          "type": "uint256"
        },
        {
          "internalType": "address",
          "name": "brand",
          "type": "address"
        },
        {
          "internalType": "address",
          "name": "rewardToken",
          "type": "address"
        },
        {
          "internalType": "uint256",
          "name": "budget",
          "type": "uint256"
        },
        {
          "internalType": "uint256",
          "name": "endTime",
          "type": "uint256"
        },
        {
          "internalType": "bytes32",
          "name": "merkleRoot",
          "type": "bytes32"
        },
        {
          "internalType": "uint256",
          "name": "totalAllocated",
          "type": "uint256"
        },
        {
          "internalType": "bool",
          "name": "isActive",
          "type": "bool"
        }
      ],
      "stateMutability": "view",
      "type": "function"
    },
    {
      "inputs": [
        {
          "internalType": "uint256",
          "name": "campaignId",
          "type": "uint256"
        },
        {
          "internalType": "uint256",
          "name": "amount",
          "type": "uint256"
        },
        {
          "internalType": "bytes32[]",
          "name": "merkleProof",
          "type": "bytes32[]"
        }
      ],
      "name": "claimReward",
      "outputs": [],
      "stateMutability": "nonpayable",
      "type": "function"
    },
    {
      "inputs": [
        {
          "internalType": "uint256",
          "name": "campaignId",
          "type": "uint256"
        }
      ],
      "name": "closeCampaign",
      "outputs": [],
      "stateMutability": "nonpayable",
      "type": "function"
    },
    {
      "inputs": [
        {
          "internalType": "address",
          "name": "token",
          "type": "address"
        },
        {
          "internalType": "uint256",
          "name": "budget",
          "type": "uint256"
        },
        {
          "internalType": "uint256",
          "name": "endTime",
          "type": "uint256"
        }
      ],
      "name": "createCampaign",
      "outputs": [],
      "stateMutability": "payable",
      "type": "function"
    },
    {
      "inputs": [
        {
          "internalType": "uint256",
          "name": "campaignId",
          "type": "uint256"
        }
      ],
      "name": "getCampaign",
      "outputs": [
        {
          "internalType": "uint256",
          "name": "id",
          "type": "uint256"
        },
        {
          "internalType": "address",
          "name": "brand",
          "type": "address"
        },
        {
          "internalType": "address",
          "name": "rewardToken",
          "type": "address"
        },
        {
          "internalType": "uint256",
          "name": "budget",
          "type": "uint256"
        },
        {
          "internalType": "uint256",
          "name": "endTime",
          "type": "uint256"
        },
        {
          "internalType": "bytes32",
          "name": "merkleRoot",
          "type": "bytes32"
        },
        {
          "internalType": "uint256",
          "name": "totalAllocated",
          "type": "uint256"
        },
        {
          "internalType": "bool",
          "name": "isActive",
          "type": "bool"
        },
        {
          "internalType": "bool",
          "name": "hasEnded",
          "type": "bool"
        },
        {
          "internalType": "bool",
          "name": "resultsPublished",
          "type": "bool"
        }
      ],
      "stateMutability": "view",
      "type": "function"
    },
    {
      "inputs": [
        {
          "internalType": "uint256",
          "name": "campaignId",
          "type": "uint256"
        }
      ],
      "name": "getCampaignStatus",
      "outputs": [
        {
          "internalType": "bool",
          "name": "hasEnded",
          "type": "bool"
        },
        {
          "internalType": "bool",
          "name": "resultsPublished",
          "type": "bool"
        },
        {
          "internalType": "bool",
          "name": "isActive",
          "type": "bool"
        },
        {
          "internalType": "uint256",
          "name": "remainingBudget",
          "type": "uint256"
        }
      ],
      "stateMutability": "view",
      "type": "function"
    },
    {
      "inputs": [
        {
          "internalType": "uint256",
          "name": "campaignId",
          "type": "uint256"
        }
      ],
      "name": "getCampaignStruct",
      "outputs": [
        {
          "components": [
            {
              "internalType": "uint256",
              "name": "id",
              "type": "uint256"
            },
            {
              "internalType": "address",
              "name": "brand",
              "type": "address"
            },
            {
              "internalType": "address",
              "name": "rewardToken",
              "type": "address"
            },
            {
              "internalType": "uint256",
              "name": "budget",
              "type": "uint256"
            },
            {
              "internalType": "uint256",
              "name": "endTime",
              "type": "uint256"
            },
            {
              "internalType": "bytes32",
              "name": "merkleRoot",
              "type": "bytes32"
            },
            {
              "internalType": "uint256",
              "name": "totalAllocated",
              "type": "uint256"
            },
            {
              "internalType": "bool",
              "name": "isActive",
              "type": "bool"
            }
          ],
          "internalType": "struct Campaign",
          "name": "",
          "type": "tuple"
        }
      ],
      "stateMutability": "view",
      "type": "function"
    },
    {
      "inputs": [
        {
          "internalType": "uint256",
          "name": "",
          "type": "uint256"
        },
        {
          "internalType": "address",
          "name": "",
          "type": "address"
        }
      ],
      "name": "hasClaimed",
      "outputs": [
        {
          "internalType": "bool",
          "name": "",
          "type": "bool"
        }
      ],
      "stateMutability": "view",
      "type": "function"
    },
    {
      "inputs": [],
      "name": "oracle",
      "outputs": [
        {
          "internalType": "address",
          "name": "",
          "type": "address"
        }
      ],
      "stateMutability": "view",
      "type": "function"
    },
    {
      "inputs": [],
      "name": "owner",
      "outputs": [
        {
          "internalType": "address",
          "name": "",
          "type": "address"
        }
      ],
      "stateMutability": "view",
      "type": "function"
    },
    {
      "inputs": [
        {
          "internalType": "uint256",
          "name": "campaignId",
          "type": "uint256"
        },
        {
          "internalType": "bytes32",
          "name": "_merkleRoot",
          "type": "bytes32"
        },
        {
          "internalType": "uint256",
          "name": "_totalAllocated",
          "type": "uint256"
        }
      ],
      "name": "publishResults",
      "outputs": [],
      "stateMutability": "nonpayable",
      "type": "function"
    },
    {
      "inputs": [
        {
          "internalType": "address",
          "name": "newOracle",
          "type": "address"
        }
      ],
      "name": "setOracle",
      "outputs": [],
      "stateMutability": "nonpayable",
      "type": "function"
    }
  ],
  "bytecode": "0x60806040523480156200001157600080fd5b506200002e6747b536f5b90f368160c01b620000ed60201b60201c565b6200004a674e07c075047e1b4d60c01b620000ed60201b60201c565b33600160006101000a81548173ffffffffffffffffffffffffffffffffffffffff021916908373ffffffffffffffffffffffffffffffffffffffff160217905550620000a7675babe5d2d4809e2560c01b620000ed60201b60201c565b336000806101000a81548173ffffffffffffffffffffffffffffffffffffffff021916908373ffffffffffffffffffffffffffffffffffffffff160217905550620000f0565b50565b61300480620001006000396000f3fe6080604052600436106100c25760003560e01c80637dc0d1d01161007f5780639821f5f2116100595780639821f5f214610294578063b0e1c1e1146102bd578063e2020167146102e6578063fcc027591461030f576100c2565b80637dc0d1d014610201578063873f6f9e1461022c5780638da5cb5b14610269576100c2565b8063141961bc146100c7578063461b60041461010b5780635598f8cc146101275780636c19e0041461016d5780637274e30d146101ad5780637adbf973146101d8575b600080fd5b3480156100d357600080fd5b506100ee60048036038101906100e99190612055565b61034c565b604051610102989796959493929190612106565b60405180910390f35b610125600480360381019061012091906121b0565b6103e1565b005b34801561013357600080fd5b5061014e60048036038101906101499190612055565b61079b565b6040516101649a99989796959493929190612203565b60405180910390f35b34801561017957600080fd5b50610194600480360381019061018f9190612055565b61096f565b6040516101a4949392919061229f565b60405180910390f35b3480156101b957600080fd5b506101c2610ad9565b6040516101cf91906122e4565b60405180910390f35b3480156101e457600080fd5b506101ff60048036038101906101fa91906122ff565b610adf565b005b34801561020d57600080fd5b50610216610d38565b604051610223919061232c565b60405180910390f35b34801561023857600080fd5b50610253600480360381019061024e9190612347565b610d5c565b6040516102609190612387565b60405180910390f35b34801561027557600080fd5b5061027e610d8b565b60405161028b919061232c565b60405180910390f35b3480156102a057600080fd5b506102bb60048036038101906102b69190612407565b610db1565b005b3480156102c957600080fd5b506102e460048036038101906102df9190612055565b6113b2565b005b3480156102f257600080fd5b5061030d600480360381019061030891906124a7565b611701565b005b34801561031b57600080fd5b5061033660048036038101906103319190612055565b611ce9565b60405161034391906125d8565b60405180910390f35b60026020528060005260406000206000915090508060000154908060010160009054906101000a900473ffffffffffffffffffffffffffffffffffffffff16908060020160009054906101000a900473ffffffffffffffffffffffffffffffffffffffff16908060030154908060040154908060050154908060060154908060070160009054906101000a900460ff16905088565b6103f567ce5256485a185aca60c01b611eed565b61040967bb0107660475a7ac60c01b611eed565b61041d67cf030244c1b7669e60c01b611eed565b61043167d5d5c77b924cfd6f60c01b611eed565b428111610473576040517f08c379a000000000000000000000000000000000000000000000000000000000815260040161046a90612651565b60405180910390fd5b610487673a0242fb6bc228ad60c01b611eed565b61049b67f8f8ab184ea2a17e60c01b611eed565b6104af67b19bad7c10c1068a60c01b611eed565b6104c367c665391c54fbbfff60c01b611eed565b60008211610506576040517f08c379a00000000000000000000000000000000000000000000000000000000081526004016104fd906126bd565b60405180910390fd5b61051a67f999dd52102357de60c01b611eed565b61052e673d5b7bbc45b4886e60c01b611eed565b600360008154809291906105419061270c565b919050555061055a674717554baf3fa97e60c01b611eed565b61056e672cfcc113a4dd083d60c01b611eed565b60006003549050610589674633a8509f06030460c01b611eed565b6040518061010001604052808281526020013373ffffffffffffffffffffffffffffffffffffffff1681526020018573ffffffffffffffffffffffffffffffffffffffff1681526020018481526020018381526020016000801b81526020016000815260200160011515815250600260008381526020019081526020016000206000820151816000015560208201518160010160006101000a81548173ffffffffffffffffffffffffffffffffffffffff021916908373ffffffffffffffffffffffffffffffffffffffff16021790555060408201518160020160006101000a81548173ffffffffffffffffffffffffffffffffffffffff021916908373ffffffffffffffffffffffffffffffffffffffff160217905550606082015181600301556080820151816004015560a0820151816005015560c0820151816006015560e08201518160070160006101000a81548160ff02191690831515021790555090505061070067e5e30ffcc1a98a4960c01b611eed565b61071467b20e10fbb849ba4860c01b611eed565b8373ffffffffffffffffffffffffffffffffffffffff166323b872dd3330866040518463ffffffff1660e01b815260040161075193929190612754565b6020604051808303816000875af1158015610770573d6000803e3d6000fd5b505050506040513d601f19601f8201168201806040525081019061079491906127b7565b5050505050565b6000806000806000806000806000806107be678ad9e87942ce3df560c01b611eed565b6107d2678d214b2cb54306a160c01b611eed565b6107e6679685758d0a527c9d60c01b611eed565b6107fa67199c49f7864ad36860c01b611eed565b60008b11801561080c57506003548b11155b61084b576040517f08c379a000000000000000000000000000000000000000000000000000000000815260040161084290612830565b60405180910390fd5b61085f67427fe07aeb05ae2c60c01b611eed565b61087367737913b6a4ac646a60c01b611eed565b610887677682ed69fceb68b560c01b611eed565b6000600260008d815260200190815260200160002090506108b2678397e163c70c481860c01b611eed565b6108c66704e93427039ecb4460c01b611eed565b80600001548160010160009054906101000a900473ffffffffffffffffffffffffffffffffffffffff168260020160009054906101000a900473ffffffffffffffffffffffffffffffffffffffff1683600301548460040154856005015486600601548760070160009054906101000a900460ff16886004015442116000801b8a6005015414159a509a509a509a509a509a509a509a509a509a50509193959799509193959799565b60008060008061098967a5a9279f117e8aa960c01b611eed565b61099d671a498ffc0e64316a60c01b611eed565b6109b167959342cd563e027e60c01b611eed565b6109c567ee4ea39dc785480860c01b611eed565b6000851180156109d757506003548511155b610a16576040517f08c379a0000000000000000000000000000000000000000000000000000000008152600401610a0d90612830565b60405180910390fd5b610a2a67cd0a9474d114558760c01b611eed565b610a3e67e968754ee83c62f660c01b611eed565b610a52674a445890b4bb9f1d60c01b611eed565b6000600260008781526020019081526020016000209050610a7d67b7ea902f44ce569d60c01b611eed565b610a9167ff066632b0c9e2b360c01b611eed565b806004015442116000801b826005015414158260070160009054906101000a900460ff1683600601548460030154610ac99190612850565b9450945094509450509193509193565b60035481565b610af36765d9db39213a1c4e60c01b611eed565b610b07679e7739d6cc30dda660c01b611eed565b610b1b678a98e8392f0c344460c01b611eed565b610b2f67afd9ef7f857ed64960c01b611eed565b610b436790d785c98b3b980960c01b611eed565b600160009054906101000a900473ffffffffffffffffffffffffffffffffffffffff1673ffffffffffffffffffffffffffffffffffffffff163373ffffffffffffffffffffffffffffffffffffffff1614610bd3576040517f08c379a0000000000000000000000000000000000000000000000000000000008152600401610bca906128f6565b60405180910390fd5b610be7679de32f0ccd251b9460c01b611eed565b610bfb670d25ac69e2b14abf60c01b611eed565b610c0f67cb519c4499ff8d1360c01b611eed565b610c2367c9c3c9e8860f998460c01b611eed565b610c3767ac5af425f6a324c760c01b611eed565b610c4b677db6c6011d04422360c01b611eed565b610c5e668a605bc681726e60c01b611eed565b600073ffffffffffffffffffffffffffffffffffffffff168173ffffffffffffffffffffffffffffffffffffffff1603610ccd576040517f08c379a0000000000000000000000000000000000000000000000000000000008152600401610cc490612962565b60405180910390fd5b610ce1671da0e698ea322a0260c01b611eed565b610cf5677ddb251c253d169b60c01b611eed565b806000806101000a81548173ffffffffffffffffffffffffffffffffffffffff021916908373ffffffffffffffffffffffffffffffffffffffff16021790555050565b60008054906101000a900473ffffffffffffffffffffffffffffffffffffffff1681565b60046020528160005260406000206020528060005260406000206000915091509054906101000a900460ff1681565b600160009054906101000a900473ffffffffffffffffffffffffffffffffffffffff1681565b610dc567d6c003b68f4e59e460c01b611eed565b610dd9679863545d01b44d4860c01b611eed565b610ded673ddb62aff4b40ab460c01b611eed565b6000600260008681526020019081526020016000209050610e1867b2a735644b33dd4860c01b611eed565b610e2c678c208e59a4d9fdc160c01b611eed565b610e406789a0744c8338861d60c01b611eed565b6000816000015403610e87576040517f08c379a0000000000000000000000000000000000000000000000000000000008152600401610e7e90612830565b60405180910390fd5b610e9b67a79a728e1680f73b60c01b611eed565b610eaf67d31bc81762009eeb60c01b611eed565b610ec367ace0b494906d6b6360c01b611eed565b610ed767b1c4e018a23efec160c01b611eed565b6000801b816005015403610f20576040517f08c379a0000000000000000000000000000000000000000000000000000000008152600401610f17906129ce565b60405180910390fd5b610f3467e01531c36e1dac9160c01b611eed565b610f4867d417be2c943943e460c01b611eed565b610f5c67feb8f9f1aff0c01f60c01b611eed565b610f7067a004017bdba80cc060c01b611eed565b6004600086815260200190815260200160002060003373ffffffffffffffffffffffffffffffffffffffff1673ffffffffffffffffffffffffffffffffffffffff16815260200190815260200160002060009054906101000a900460ff161561100e576040517f08c379a000000000000000000000000000000000000000000000000000000000815260040161100590612a3a565b60405180910390fd5b61102267b031fbe17703920660c01b611eed565b611036678fc853f54754213460c01b611eed565b61104a6773529f78be6f5e2160c01b611eed565b61105e674d506b2e7fe60c5d60c01b611eed565b600084116110a1576040517f08c379a000000000000000000000000000000000000000000000000000000000815260040161109890612aa6565b60405180910390fd5b6110b567dbb9c0884e4800b160c01b611eed565b6110c96795a8410cb649c21160c01b611eed565b6110dd6756b2bb121cf5748560c01b611eed565b600033856040516020016110f2929190612b2f565b60405160208183030381529060405280519060200120905061111e679da5208af511a08e60c01b611eed565b61113267dd6fc087fc66768a60c01b611eed565b6111466726e2cb7d5af844ed60c01b611eed565b611196848480806020026020016040519081016040528093929190818152602001838360200280828437600081840152601f19601f82011690508083019250505050505050836005015483611ef0565b6111d5576040517f08c379a00000000000000000000000000000000000000000000000000000000081526004016111cc90612ba7565b60405180910390fd5b6111e967262b81f596bd2b9760c01b611eed565b6111fd67542421bf4f9501cd60c01b611eed565b60016004600088815260200190815260200160002060003373ffffffffffffffffffffffffffffffffffffffff1673ffffffffffffffffffffffffffffffffffffffff16815260200190815260200160002060006101000a81548160ff02191690831515021790555061127a67276cea5a49a4d13860c01b611eed565b61128e674f63d9be667a9ee460c01b611eed565b8160020160009054906101000a900473ffffffffffffffffffffffffffffffffffffffff1673ffffffffffffffffffffffffffffffffffffffff1663a9059cbb33876040518363ffffffff1660e01b81526004016112ed929190612bc7565b6020604051808303816000875af115801561130c573d6000803e3d6000fd5b505050506040513d601f19601f8201168201806040525081019061133091906127b7565b50611345676184bb7dddf7034060c01b611eed565b6113596710cc3a8b1594900d60c01b611eed565b3373ffffffffffffffffffffffffffffffffffffffff16867ffc6ecd966b430510beae9124efe7dd517ed5286d7ed0ae258f8556c7a9765a4487426040516113a2929190612bf0565b60405180910390a3505050505050565b6113c667c28ba1a950e5ec1e60c01b611eed565b6113da67bda916eaae4c73b660c01b611eed565b6113ee679c3b25d94d5f7a6260c01b611eed565b611402672cf9e3c511408d4560c01b611eed565b600060026000838152602001908152602001600020600001540361145b576040517f08c379a000000000000000000000000000000000000000000000000000000000815260040161145290612830565b60405180910390fd5b61146f677ba271ad69b85b8560c01b611eed565b6114836751a3a2547be5a79360c01b611eed565b611497678c71ac656786ed7b60c01b611eed565b6114ab6714d098ad508aed5a60c01b611eed565b6002600082815260200190815260200160002060070160009054906101000a900460ff1661150e576040517f08c379a000000000000000000000000000000000000000000000000000000000815260040161150590612c65565b60405180910390fd5b611522676d9ebe5e36ac77ff60c01b611eed565b61153667295a25cafacd530360c01b611eed565b61154a675e33c92f9b22b80a60c01b611eed565b61155e67b40644bd7fb8960160c01b611eed565b6002600082815260200190815260200160002060010160009054906101000a900473ffffffffffffffffffffffffffffffffffffffff1673ffffffffffffffffffffffffffffffffffffffff163373ffffffffffffffffffffffffffffffffffffffff1614611602576040517f08c379a00000000000000000000000000000000000000000000000000000000081526004016115f990612cd1565b60405180910390fd5b6116166774c06881ee25ac6560c01b611eed565b61162a675881eb376dcb310360c01b611eed565b61163e67cc75f749319576ec60c01b611eed565b60006002600083815260200190815260200160002090506116696748c541d728235c0960c01b611eed565b60008160070160006101000a81548160ff02191690831515021790555061169a67692e48fd39e59b3b60c01b611eed565b6116ae679eaf5758cecf771360c01b611eed565b3373ffffffffffffffffffffffffffffffffffffffff16827fe120b15313f47b70c9196f36751e63aa50b67cf9316c6b5d695b4ad33ce2076f426040516116f591906122e4565b60405180910390a35050565b6117156753abe6e9caedb96660c01b611eed565b61172967c00da440f5b5780760c01b611eed565b61173d6743864822ac29142f60c01b611eed565b61175167b1d13d34e568d18960c01b611eed565b61176567da8b33b1ccd113df60c01b611eed565b60008054906101000a900473ffffffffffffffffffffffffffffffffffffffff1673ffffffffffffffffffffffffffffffffffffffff163373ffffffffffffffffffffffffffffffffffffffff16146117f3576040517f08c379a00000000000000000000000000000000000000000000000000000000081526004016117ea90612d63565b60405180910390fd5b61180767529649189fb9fd8660c01b611eed565b61181b6779aa178c3d29cf9560c01b611eed565b61182f67e4a61ac82b095afa60c01b611eed565b61184367bea6c43b8a463fe060c01b611eed565b61185767da555411a14eb5ec60c01b611eed565b61186b67285173f9028e795960c01b611eed565b600060026000858152602001908152602001600020905061189667295b49781f9c990260c01b611eed565b6118aa674bffee94553d2e2e60c01b611eed565b6118be67e3983fec82338d3d60c01b611eed565b6000816000015403611905576040517f08c379a00000000000000000000000000000000000000000000000000000000081526004016118fc90612830565b60405180910390fd5b61191967e660e4e0c4231c1b60c01b611eed565b61192d675849ab8e56d0b83f60c01b611eed565b611941670b333acf5b4e738260c01b611eed565b61195567ee3d4428338c72ad60c01b611eed565b8060070160009054906101000a900460ff166119a6576040517f08c379a000000000000000000000000000000000000000000000000000000000815260040161199d90612dcf565b60405180910390fd5b6119ba6727caa66ae26b313560c01b611eed565b6119ce6749d1f7e88a604b6f60c01b611eed565b6119e267e917dc02606d623760c01b611eed565b6119f667200b58e234d84ba360c01b611eed565b80600401544211611a3c576040517f08c379a0000000000000000000000000000000000000000000000000000000008152600401611a3390612e3b565b60405180910390fd5b611a5067b6e27fa1e546aaf660c01b611eed565b611a64674814a162d4679e4d60c01b611eed565b611a7867f8012aae73d01f7d60c01b611eed565b611a8c67c0d53495b789552560c01b611eed565b6000801b816005015414611ad5576040517f08c379a0000000000000000000000000000000000000000000000000000000008152600401611acc90612ea7565b60405180910390fd5b611ae9676d0fc077155081d760c01b611eed565b611afd671ed7cc108bf0475060c01b611eed565b611b1167d2f1a5c5bcaa115760c01b611eed565b611b2567855ad3b66679128960c01b611eed565b8060030154821115611b6c576040517f08c379a0000000000000000000000000000000000000000000000000000000008152600401611b6390612f13565b60405180910390fd5b611b8067b1f00c49f1943e1060c01b611eed565b611b9467a20bc852ede3160a60c01b611eed565b611ba8679d9132567014f73260c01b611eed565b611bbc679a93f03d46d329e960c01b611eed565b6000801b8303611c01576040517f08c379a0000000000000000000000000000000000000000000000000000000008152600401611bf890612f7f565b60405180910390fd5b611c15677b4b5fb6fda7f27f60c01b611eed565b611c296755bbf0827cc3ac5260c01b611eed565b828160050181905550611c46670c016d7f1952593c60c01b611eed565b818160060181905550611c6367addf9673d824571760c01b611eed565b60008160070160006101000a81548160ff021916908315150217905550611c9467b9133b592e5b194960c01b611eed565b611ca867b443a2d1363a960260c01b611eed565b82847faadc284d63eaaf8a809a1b43e533d2e81be005f73d7e7ca39e5457844740463f8442604051611cdb929190612bf0565b60405180910390a350505050565b611cf1611f9f565b611d056727f28e327917debf60c01b611eed565b611d196786a4dccf621b5a2f60c01b611eed565b611d2d6752a8b6a85e9d3c8860c01b611eed565b611d41675ab854ee4b670cd260c01b611eed565b600082118015611d5357506003548211155b611d92576040517f08c379a0000000000000000000000000000000000000000000000000000000008152600401611d8990612830565b60405180910390fd5b611da6675a5093a25e0997ff60c01b611eed565b611dba673d828991a9051bf860c01b611eed565b611dce67c656adf8db28473060c01b611eed565b6002600083815260200190815260200160002060405180610100016040529081600082015481526020016001820160009054906101000a900473ffffffffffffffffffffffffffffffffffffffff1673ffffffffffffffffffffffffffffffffffffffff1673ffffffffffffffffffffffffffffffffffffffff1681526020016002820160009054906101000a900473ffffffffffffffffffffffffffffffffffffffff1673ffffffffffffffffffffffffffffffffffffffff1673ffffffffffffffffffffffffffffffffffffffff168152602001600382015481526020016004820154815260200160058201548152602001600682015481526020016007820160009054906101000a900460ff1615151515815250509050919050565b50565b600082611efd8584611f07565b1490509392505050565b60008082905060005b8451811015611f5257611f3d82868381518110611f3057611f2f612f9f565b5b6020026020010151611f5d565b91508080611f4a9061270c565b915050611f10565b508091505092915050565b6000818310611f7557611f708284611f88565b611f80565b611f7f8383611f88565b5b905092915050565b600082600052816020526040600020905092915050565b60405180610100016040528060008152602001600073ffffffffffffffffffffffffffffffffffffffff168152602001600073ffffffffffffffffffffffffffffffffffffffff168152602001600081526020016000815260200160008019168152602001600081526020016000151581525090565b600080fd5b600080fd5b6000819050919050565b6120328161201f565b811461203d57600080fd5b50565b60008135905061204f81612029565b92915050565b60006020828403121561206b5761206a612015565b5b600061207984828501612040565b91505092915050565b61208b8161201f565b82525050565b600073ffffffffffffffffffffffffffffffffffffffff82169050919050565b60006120bc82612091565b9050919050565b6120cc816120b1565b82525050565b6000819050919050565b6120e5816120d2565b82525050565b60008115159050919050565b612100816120eb565b82525050565b60006101008201905061211c600083018b612082565b612129602083018a6120c3565b61213660408301896120c3565b6121436060830188612082565b6121506080830187612082565b61215d60a08301866120dc565b61216a60c0830185612082565b61217760e08301846120f7565b9998505050505050505050565b61218d816120b1565b811461219857600080fd5b50565b6000813590506121aa81612184565b92915050565b6000806000606084860312156121c9576121c8612015565b5b60006121d78682870161219b565b93505060206121e886828701612040565b92505060406121f986828701612040565b9150509250925092565b600061014082019050612219600083018d612082565b612226602083018c6120c3565b612233604083018b6120c3565b612240606083018a612082565b61224d6080830189612082565b61225a60a08301886120dc565b61226760c0830187612082565b61227460e08301866120f7565b6122826101008301856120f7565b6122906101208301846120f7565b9b9a5050505050505050505050565b60006080820190506122b460008301876120f7565b6122c160208301866120f7565b6122ce60408301856120f7565b6122db6060830184612082565b95945050505050565b60006020820190506122f96000830184612082565b92915050565b60006020828403121561231557612314612015565b5b60006123238482850161219b565b91505092915050565b600060208201905061234160008301846120c3565b92915050565b6000806040838503121561235e5761235d612015565b5b600061236c85828601612040565b925050602061237d8582860161219b565b9150509250929050565b600060208201905061239c60008301846120f7565b92915050565b600080fd5b600080fd5b600080fd5b60008083601f8401126123c7576123c66123a2565b5b8235905067ffffffffffffffff8111156123e4576123e36123a7565b5b602083019150836020820283011115612400576123ff6123ac565b5b9250929050565b6000806000806060858703121561242157612420612015565b5b600061242f87828801612040565b945050602061244087828801612040565b935050604085013567ffffffffffffffff8111156124615761246061201a565b5b61246d878288016123b1565b925092505092959194509250565b612484816120d2565b811461248f57600080fd5b50565b6000813590506124a18161247b565b92915050565b6000806000606084860312156124c0576124bf612015565b5b60006124ce86828701612040565b93505060206124df86828701612492565b92505060406124f086828701612040565b9150509250925092565b6125038161201f565b82525050565b612512816120b1565b82525050565b612521816120d2565b82525050565b612530816120eb565b82525050565b6101008201600082015161254d60008501826124fa565b5060208201516125606020850182612509565b5060408201516125736040850182612509565b50606082015161258660608501826124fa565b50608082015161259960808501826124fa565b5060a08201516125ac60a0850182612518565b5060c08201516125bf60c08501826124fa565b5060e08201516125d260e0850182612527565b50505050565b6000610100820190506125ee6000830184612536565b92915050565b600082825260208201905092915050565b7f456e642074696d65206d75737420626520696e20746865206675747572650000600082015250565b600061263b601e836125f4565b915061264682612605565b602082019050919050565b6000602082019050818103600083015261266a8161262e565b9050919050565b7f427564676574206d7573742062652067726561746572207468616e207a65726f600082015250565b60006126a76020836125f4565b91506126b282612671565b602082019050919050565b600060208201905081810360008301526126d68161269a565b9050919050565b7f4e487b7100000000000000000000000000000000000000000000000000000000600052601160045260246000fd5b60006127178261201f565b91507fffffffffffffffffffffffffffffffffffffffffffffffffffffffffffffffff8203612749576127486126dd565b5b600182019050919050565b600060608201905061276960008301866120c3565b61277660208301856120c3565b6127836040830184612082565b949350505050565b612794816120eb565b811461279f57600080fd5b50565b6000815190506127b18161278b565b92915050565b6000602082840312156127cd576127cc612015565b5b60006127db848285016127a2565b91505092915050565b7f43616d706169676e20646f6573206e6f74206578697374000000000000000000600082015250565b600061281a6017836125f4565b9150612825826127e4565b602082019050919050565b600060208201905081810360008301526128498161280d565b9050919050565b600061285b8261201f565b91506128668361201f565b925082820390508181111561287e5761287d6126dd565b5b92915050565b7f4f6e6c79206f776e65722063616e2063616c6c20746869732066756e6374696f60008201527f6e00000000000000000000000000000000000000000000000000000000000000602082015250565b60006128e06021836125f4565b91506128eb82612884565b604082019050919050565b6000602082019050818103600083015261290f816128d3565b9050919050565b7f4f7261636c652063616e6e6f74206265207a65726f2061646472657373000000600082015250565b600061294c601d836125f4565b915061295782612916565b602082019050919050565b6000602082019050818103600083015261297b8161293f565b9050919050565b7f526573756c7473206e6f74207075626c69736865642079657400000000000000600082015250565b60006129b86019836125f4565b91506129c382612982565b602082019050919050565b600060208201905081810360008301526129e7816129ab565b9050919050565b7f52657761726420616c726561647920636c61696d656400000000000000000000600082015250565b6000612a246016836125f4565b9150612a2f826129ee565b602082019050919050565b60006020820190508181036000830152612a5381612a17565b9050919050565b7f416d6f756e74206d7573742062652067726561746572207468616e207a65726f600082015250565b6000612a906020836125f4565b9150612a9b82612a5a565b602082019050919050565b60006020820190508181036000830152612abf81612a83565b9050919050565b60008160601b9050919050565b6000612ade82612ac6565b9050919050565b6000612af082612ad3565b9050919050565b612b08612b03826120b1565b612ae5565b82525050565b6000819050919050565b612b29612b248261201f565b612b0e565b82525050565b6000612b3b8285612af7565b601482019150612b4b8284612b18565b6020820191508190509392505050565b7f496e76616c6964204d65726b6c652070726f6f66000000000000000000000000600082015250565b6000612b916014836125f4565b9150612b9c82612b5b565b602082019050919050565b60006020820190508181036000830152612bc081612b84565b9050919050565b6000604082019050612bdc60008301856120c3565b612be96020830184612082565b9392505050565b6000604082019050612c056000830185612082565b612c126020830184612082565b9392505050565b7f43616d706169676e20697320616c726561647920636c6f736564000000000000600082015250565b6000612c4f601a836125f4565b9150612c5a82612c19565b602082019050919050565b60006020820190508181036000830152612c7e81612c42565b9050919050565b7f4f6e6c792063616d706169676e2063726561746f722063616e20636c6f736500600082015250565b6000612cbb601f836125f4565b9150612cc682612c85565b602082019050919050565b60006020820190508181036000830152612cea81612cae565b9050919050565b7f4f6e6c79206f7261636c652063616e2063616c6c20746869732066756e63746960008201527f6f6e000000000000000000000000000000000000000000000000000000000000602082015250565b6000612d4d6022836125f4565b9150612d5882612cf1565b604082019050919050565b60006020820190508181036000830152612d7c81612d40565b9050919050565b7f43616d706169676e206973206e6f742061637469766500000000000000000000600082015250565b6000612db96016836125f4565b9150612dc482612d83565b602082019050919050565b60006020820190508181036000830152612de881612dac565b9050919050565b7f43616d706169676e20686173206e6f7420656e64656420796574000000000000600082015250565b6000612e25601a836125f4565b9150612e3082612def565b602082019050919050565b60006020820190508181036000830152612e5481612e18565b9050919050565b7f526573756c747320616c7265616479207075626c697368656400000000000000600082015250565b6000612e916019836125f4565b9150612e9c82612e5b565b602082019050919050565b60006020820190508181036000830152612ec081612e84565b9050919050565b7f416c6c6f636174656420616d6f756e7420657863656564732062756467657400600082015250565b6000612efd601f836125f4565b9150612f0882612ec7565b602082019050919050565b60006020820190508181036000830152612f2c81612ef0565b9050919050565b7f4d65726b6c6520726f6f742063616e6e6f7420626520656d7074790000000000600082015250565b6000612f69601b836125f4565b9150612f7482612f33565b602082019050919050565b60006020820190508181036000830152612f9881612f5c565b9050919050565b7f4e487b7100000000000000000000000000000000000000000000000000000000600052603260045260246000fdfea264697066735822122069d9f9c20131c3b7cfeb11f3bf12be727ff54bb1c6f568c65bbbf216d106a16f64736f6c63430008130033",
  "linkReferences": {},
  "deployedLinkReferences": {}
}